{
  "contractName": "Heritage",
  "abi": [
    {
      "constant": true,
      "inputs": [],
      "name": "totalDonationsMade",
      "outputs": [
        {
          "name": "",
          "type": "uint256"
        }
      ],
      "payable": false,
      "stateMutability": "view",
      "type": "function"
    },
    {
      "constant": true,
      "inputs": [
        {
          "name": "_interfaceId",
          "type": "bytes4"
        }
      ],
      "name": "supportsInterface",
      "outputs": [
        {
          "name": "",
          "type": "bool"
        }
      ],
      "payable": false,
      "stateMutability": "view",
      "type": "function"
    },
    {
      "constant": true,
      "inputs": [
        {
          "name": "_tokenId",
          "type": "uint256"
        }
      ],
      "name": "getApproved",
      "outputs": [
        {
          "name": "",
          "type": "address"
        }
      ],
      "payable": false,
      "stateMutability": "view",
      "type": "function"
    },
    {
      "constant": false,
      "inputs": [
        {
          "name": "_to",
          "type": "address"
        },
        {
          "name": "_tokenId",
          "type": "uint256"
        }
      ],
      "name": "approve",
      "outputs": [],
      "payable": false,
      "stateMutability": "nonpayable",
      "type": "function"
    },
    {
      "constant": true,
      "inputs": [],
      "name": "InterfaceId_ERC165",
      "outputs": [
        {
          "name": "",
          "type": "bytes4"
        }
      ],
      "payable": false,
      "stateMutability": "view",
      "type": "function"
    },
    {
      "constant": false,
      "inputs": [
        {
          "name": "_from",
          "type": "address"
        },
        {
          "name": "_to",
          "type": "address"
        },
        {
          "name": "_tokenId",
          "type": "uint256"
        }
      ],
      "name": "transferFrom",
      "outputs": [],
      "payable": false,
      "stateMutability": "nonpayable",
      "type": "function"
    },
    {
      "constant": true,
      "inputs": [
        {
          "name": "",
          "type": "address"
        }
      ],
      "name": "isProxy",
      "outputs": [
        {
          "name": "",
          "type": "bool"
        }
      ],
      "payable": false,
      "stateMutability": "view",
      "type": "function"
    },
    {
      "constant": false,
      "inputs": [
        {
          "name": "_manager",
          "type": "address"
        }
      ],
      "name": "addManager",
      "outputs": [],
      "payable": false,
      "stateMutability": "nonpayable",
      "type": "function"
    },
    {
      "constant": true,
      "inputs": [
        {
          "name": "",
          "type": "uint256"
        }
      ],
      "name": "donationGoal",
      "outputs": [
        {
          "name": "",
          "type": "uint256"
        }
      ],
      "payable": false,
      "stateMutability": "view",
      "type": "function"
    },
    {
      "constant": false,
      "inputs": [],
      "name": "unpause",
      "outputs": [],
      "payable": false,
      "stateMutability": "nonpayable",
      "type": "function"
    },
    {
      "constant": false,
      "inputs": [
        {
          "name": "_from",
          "type": "address"
        },
        {
          "name": "_to",
          "type": "address"
        },
        {
          "name": "_tokenId",
          "type": "uint256"
        }
      ],
      "name": "safeTransferFrom",
      "outputs": [],
      "payable": false,
      "stateMutability": "nonpayable",
      "type": "function"
    },
    {
      "constant": true,
      "inputs": [
        {
          "name": "_tokenId",
          "type": "uint256"
        }
      ],
      "name": "exists",
      "outputs": [
        {
          "name": "",
          "type": "bool"
        }
      ],
      "payable": false,
      "stateMutability": "view",
      "type": "function"
    },
    {
      "constant": true,
      "inputs": [],
      "name": "paused",
      "outputs": [
        {
          "name": "",
          "type": "bool"
        }
      ],
      "payable": false,
      "stateMutability": "view",
      "type": "function"
    },
    {
      "constant": true,
      "inputs": [
        {
          "name": "_tokenId",
          "type": "uint256"
        }
      ],
      "name": "ownerOf",
      "outputs": [
        {
          "name": "",
          "type": "address"
        }
      ],
      "payable": false,
      "stateMutability": "view",
      "type": "function"
    },
    {
      "constant": true,
      "inputs": [
        {
          "name": "_owner",
          "type": "address"
        }
      ],
      "name": "balanceOf",
      "outputs": [
        {
          "name": "",
          "type": "uint256"
        }
      ],
      "payable": false,
      "stateMutability": "view",
      "type": "function"
    },
    {
      "constant": false,
      "inputs": [],
      "name": "renounceOwnership",
      "outputs": [],
      "payable": false,
      "stateMutability": "nonpayable",
      "type": "function"
    },
    {
      "constant": false,
      "inputs": [],
      "name": "destroy",
      "outputs": [],
      "payable": false,
      "stateMutability": "nonpayable",
      "type": "function"
    },
    {
      "constant": true,
      "inputs": [],
      "name": "totalDonationsCreated",
      "outputs": [
        {
          "name": "",
          "type": "uint256"
        }
      ],
      "payable": false,
      "stateMutability": "view",
      "type": "function"
    },
    {
      "constant": false,
      "inputs": [],
      "name": "pause",
      "outputs": [],
      "payable": false,
      "stateMutability": "nonpayable",
      "type": "function"
    },
    {
      "constant": true,
      "inputs": [],
      "name": "owner",
      "outputs": [
        {
          "name": "",
          "type": "address"
        }
      ],
      "payable": false,
      "stateMutability": "view",
      "type": "function"
    },
    {
      "constant": true,
      "inputs": [
        {
          "name": "",
          "type": "uint256"
        }
      ],
      "name": "isFiat",
      "outputs": [
        {
          "name": "",
          "type": "bool"
        }
      ],
      "payable": false,
      "stateMutability": "view",
      "type": "function"
    },
    {
      "constant": false,
      "inputs": [
        {
          "name": "_to",
          "type": "address"
        },
        {
          "name": "_approved",
          "type": "bool"
        }
      ],
      "name": "setApprovalForAll",
      "outputs": [],
      "payable": false,
      "stateMutability": "nonpayable",
      "type": "function"
    },
    {
      "constant": false,
      "inputs": [
        {
          "name": "_manager",
          "type": "address"
        }
      ],
      "name": "removeManager",
      "outputs": [],
      "payable": false,
      "stateMutability": "nonpayable",
      "type": "function"
    },
    {
      "constant": true,
      "inputs": [
        {
          "name": "",
          "type": "uint256"
        }
      ],
      "name": "donationClaimable",
      "outputs": [
        {
          "name": "",
          "type": "bool"
        }
      ],
      "payable": false,
      "stateMutability": "view",
      "type": "function"
    },
    {
      "constant": true,
      "inputs": [
        {
          "name": "",
          "type": "uint256"
        }
      ],
      "name": "donationRaised",
      "outputs": [
        {
          "name": "",
          "type": "uint256"
        }
      ],
      "payable": false,
      "stateMutability": "view",
      "type": "function"
    },
    {
      "constant": true,
      "inputs": [],
      "name": "totalDonationsIssued",
      "outputs": [
        {
          "name": "",
          "type": "uint256"
        }
      ],
      "payable": false,
      "stateMutability": "view",
      "type": "function"
    },
    {
      "constant": false,
      "inputs": [
        {
          "name": "_from",
          "type": "address"
        },
        {
          "name": "_to",
          "type": "address"
        },
        {
          "name": "_tokenId",
          "type": "uint256"
        },
        {
          "name": "_data",
          "type": "bytes"
        }
      ],
      "name": "safeTransferFrom",
      "outputs": [],
      "payable": false,
      "stateMutability": "nonpayable",
      "type": "function"
    },
    {
      "constant": true,
      "inputs": [
        {
          "name": "",
          "type": "uint256"
        }
      ],
      "name": "donationDescription",
      "outputs": [
        {
          "name": "",
          "type": "string"
        }
      ],
      "payable": false,
      "stateMutability": "view",
      "type": "function"
    },
    {
      "constant": true,
      "inputs": [
        {
          "name": "",
          "type": "uint256"
        }
      ],
      "name": "donationTaxId",
      "outputs": [
        {
          "name": "",
          "type": "string"
        }
      ],
      "payable": false,
      "stateMutability": "view",
      "type": "function"
    },
    {
      "constant": false,
      "inputs": [
        {
          "name": "_daiContract",
          "type": "address"
        }
      ],
      "name": "changeDaiAddress",
      "outputs": [],
      "payable": false,
      "stateMutability": "nonpayable",
      "type": "function"
    },
    {
      "constant": true,
      "inputs": [
        {
          "name": "_owner",
          "type": "address"
        },
        {
          "name": "_operator",
          "type": "address"
        }
      ],
      "name": "isApprovedForAll",
      "outputs": [
        {
          "name": "",
          "type": "bool"
        }
      ],
      "payable": false,
      "stateMutability": "view",
      "type": "function"
    },
    {
      "constant": true,
      "inputs": [],
      "name": "issueDonationEnabled",
      "outputs": [
        {
          "name": "",
          "type": "bool"
        }
      ],
      "payable": false,
      "stateMutability": "view",
      "type": "function"
    },
    {
      "constant": true,
      "inputs": [
        {
          "name": "_id",
          "type": "uint256"
        }
      ],
      "name": "getDonation",
      "outputs": [
        {
          "name": "_originalDonationId",
          "type": "uint256"
        },
        {
          "name": "_donationId",
          "type": "uint256"
        },
        {
          "name": "_description",
          "type": "string"
        },
        {
          "name": "_goal",
          "type": "uint256"
        },
        {
          "name": "_raised",
          "type": "uint256"
        },
        {
          "name": "_amount",
          "type": "uint256"
        },
        {
          "name": "_beneficiary",
          "type": "address"
        },
        {
          "name": "_donor",
          "type": "address"
        },
        {
          "name": "_taxId",
          "type": "string"
        },
        {
          "name": "_claimable",
          "type": "bool"
        }
      ],
      "payable": false,
      "stateMutability": "view",
      "type": "function"
    },
    {
      "constant": true,
      "inputs": [
        {
          "name": "",
          "type": "uint256"
        }
      ],
      "name": "donationBeneficiary",
      "outputs": [
        {
          "name": "",
          "type": "address"
        }
      ],
      "payable": false,
      "stateMutability": "view",
      "type": "function"
    },
    {
      "constant": false,
      "inputs": [
        {
          "name": "_newOwner",
          "type": "address"
        }
      ],
      "name": "transferOwnership",
      "outputs": [],
      "payable": false,
      "stateMutability": "nonpayable",
      "type": "function"
    },
    {
      "constant": true,
      "inputs": [
        {
          "name": "_manager",
          "type": "address"
        }
      ],
      "name": "isManager",
      "outputs": [
        {
          "name": "",
          "type": "bool"
        }
      ],
      "payable": false,
      "stateMutability": "view",
      "type": "function"
    },
    {
      "constant": true,
      "inputs": [],
      "name": "dai",
      "outputs": [
        {
          "name": "",
          "type": "address"
        }
      ],
      "payable": false,
      "stateMutability": "view",
      "type": "function"
    },
    {
      "constant": false,
      "inputs": [
        {
          "name": "_recipient",
          "type": "address"
        }
      ],
      "name": "destroyAndSend",
      "outputs": [],
      "payable": false,
      "stateMutability": "nonpayable",
      "type": "function"
    },
    {
      "constant": true,
      "inputs": [
        {
          "name": "",
          "type": "uint256"
        }
      ],
      "name": "donations",
      "outputs": [
        {
          "name": "donationId",
          "type": "uint128"
        },
        {
          "name": "amount",
          "type": "uint128"
        },
        {
          "name": "donor",
          "type": "address"
        }
      ],
      "payable": false,
      "stateMutability": "view",
      "type": "function"
    },
    {
      "constant": true,
      "inputs": [
        {
          "name": "",
          "type": "uint256"
        }
      ],
      "name": "isDai",
      "outputs": [
        {
          "name": "",
          "type": "bool"
        }
      ],
      "payable": false,
      "stateMutability": "view",
      "type": "function"
    },
    {
      "inputs": [
        {
          "name": "enableIssueDonation",
          "type": "bool"
        }
      ],
      "payable": true,
      "stateMutability": "payable",
      "type": "constructor"
    },
    {
      "payable": false,
      "stateMutability": "nonpayable",
      "type": "fallback"
    },
    {
      "anonymous": false,
      "inputs": [
        {
          "indexed": false,
          "name": "balance",
          "type": "uint256"
        }
      ],
      "name": "ReclaimEther",
      "type": "event"
    },
    {
      "anonymous": false,
      "inputs": [
        {
          "indexed": false,
          "name": "description",
          "type": "string"
        },
        {
          "indexed": false,
          "name": "goal",
          "type": "uint256"
        },
        {
          "indexed": false,
          "name": "beneficiary",
          "type": "address"
        },
        {
          "indexed": false,
          "name": "taxId",
          "type": "string"
        },
        {
          "indexed": false,
          "name": "creator",
          "type": "address"
        },
        {
          "indexed": false,
          "name": "claimable",
          "type": "bool"
        }
      ],
      "name": "CreateFundraiser",
      "type": "event"
    },
    {
      "anonymous": false,
      "inputs": [
        {
          "indexed": false,
          "name": "donationId",
          "type": "uint256"
        },
        {
          "indexed": false,
          "name": "amount",
          "type": "uint256"
        },
        {
          "indexed": false,
          "name": "donor",
          "type": "address"
        },
        {
          "indexed": false,
          "name": "sender",
          "type": "address"
        }
      ],
      "name": "MakeDonation",
      "type": "event"
    },
    {
      "anonymous": false,
      "inputs": [
        {
          "indexed": false,
          "name": "donor",
          "type": "address"
        },
        {
          "indexed": false,
          "name": "donationId",
          "type": "uint256"
        }
      ],
      "name": "ClaimDonation",
      "type": "event"
    },
    {
      "anonymous": false,
      "inputs": [
        {
          "indexed": false,
          "name": "donationId",
          "type": "uint256"
        },
        {
          "indexed": false,
          "name": "amount",
          "type": "uint256"
        },
        {
          "indexed": false,
          "name": "donor",
          "type": "address"
        },
        {
          "indexed": false,
          "name": "issuer",
          "type": "address"
        }
      ],
      "name": "IssueDonation",
      "type": "event"
    },
    {
      "anonymous": false,
      "inputs": [
        {
          "indexed": false,
          "name": "donationId",
          "type": "uint256"
        }
      ],
      "name": "DeleteDonation",
      "type": "event"
    },
    {
      "anonymous": false,
      "inputs": [
        {
          "indexed": false,
          "name": "newAddress",
          "type": "address"
        }
      ],
      "name": "ChangeDAIAddress",
      "type": "event"
    },
    {
      "anonymous": false,
      "inputs": [
        {
          "indexed": false,
          "name": "manager",
          "type": "address"
        }
      ],
      "name": "AddManager",
      "type": "event"
    },
    {
      "anonymous": false,
      "inputs": [
        {
          "indexed": false,
          "name": "manager",
          "type": "address"
        }
      ],
      "name": "RemoveManager",
      "type": "event"
    },
    {
      "anonymous": false,
      "inputs": [],
      "name": "Pause",
      "type": "event"
    },
    {
      "anonymous": false,
      "inputs": [],
      "name": "Unpause",
      "type": "event"
    },
    {
      "anonymous": false,
      "inputs": [
        {
          "indexed": true,
          "name": "previousOwner",
          "type": "address"
        }
      ],
      "name": "OwnershipRenounced",
      "type": "event"
    },
    {
      "anonymous": false,
      "inputs": [
        {
          "indexed": true,
          "name": "previousOwner",
          "type": "address"
        },
        {
          "indexed": true,
          "name": "newOwner",
          "type": "address"
        }
      ],
      "name": "OwnershipTransferred",
      "type": "event"
    },
    {
      "anonymous": false,
      "inputs": [
        {
          "indexed": true,
          "name": "_from",
          "type": "address"
        },
        {
          "indexed": true,
          "name": "_to",
          "type": "address"
        },
        {
          "indexed": true,
          "name": "_tokenId",
          "type": "uint256"
        }
      ],
      "name": "Transfer",
      "type": "event"
    },
    {
      "anonymous": false,
      "inputs": [
        {
          "indexed": true,
          "name": "_owner",
          "type": "address"
        },
        {
          "indexed": true,
          "name": "_approved",
          "type": "address"
        },
        {
          "indexed": true,
          "name": "_tokenId",
          "type": "uint256"
        }
      ],
      "name": "Approval",
      "type": "event"
    },
    {
      "anonymous": false,
      "inputs": [
        {
          "indexed": true,
          "name": "_owner",
          "type": "address"
        },
        {
          "indexed": true,
          "name": "_operator",
          "type": "address"
        },
        {
          "indexed": false,
          "name": "_approved",
          "type": "bool"
        }
      ],
      "name": "ApprovalForAll",
      "type": "event"
    },
    {
      "constant": false,
      "inputs": [],
      "name": "reclaimEther",
      "outputs": [],
      "payable": false,
      "stateMutability": "nonpayable",
      "type": "function"
    },
    {
      "constant": false,
      "inputs": [
        {
          "name": "_description",
          "type": "string"
        },
        {
          "name": "_goal",
          "type": "uint256"
        },
        {
          "name": "_beneficiary",
          "type": "address"
        },
        {
          "name": "_taxId",
          "type": "string"
        },
        {
          "name": "_claimable",
          "type": "bool"
        }
      ],
      "name": "createFundraiser",
      "outputs": [
        {
          "name": "",
          "type": "uint256"
        }
      ],
      "payable": false,
      "stateMutability": "nonpayable",
      "type": "function"
    },
    {
      "constant": false,
      "inputs": [
        {
          "name": "_description",
          "type": "string"
        },
        {
          "name": "_goal",
          "type": "uint256"
        },
        {
          "name": "_beneficiary",
          "type": "address"
        },
        {
          "name": "_taxId",
          "type": "string"
        },
        {
          "name": "_claimable",
          "type": "bool"
        }
      ],
      "name": "createDAIFundraiser",
      "outputs": [
        {
          "name": "",
          "type": "uint256"
        }
      ],
      "payable": false,
      "stateMutability": "nonpayable",
      "type": "function"
    },
    {
      "constant": false,
      "inputs": [
        {
          "name": "_donationId",
          "type": "uint256"
        },
        {
          "name": "_donor",
          "type": "address"
        }
      ],
      "name": "proxyDonation",
      "outputs": [],
      "payable": true,
      "stateMutability": "payable",
      "type": "function"
    },
    {
      "constant": false,
      "inputs": [
        {
          "name": "_donationId",
          "type": "uint256"
        }
      ],
      "name": "createFundraiserProxy",
      "outputs": [
        {
          "name": "proxyAddress",
          "type": "address"
        }
      ],
      "payable": false,
      "stateMutability": "nonpayable",
      "type": "function"
    },
    {
      "constant": false,
      "inputs": [
        {
          "name": "_donationId",
          "type": "uint256"
        }
      ],
      "name": "makeDonation",
      "outputs": [
        {
          "name": "",
          "type": "uint256"
        }
      ],
      "payable": true,
      "stateMutability": "payable",
      "type": "function"
    },
    {
      "constant": false,
      "inputs": [
        {
          "name": "_donationId",
          "type": "uint256"
        },
        {
          "name": "_amount",
          "type": "uint256"
        }
      ],
      "name": "makeDAIDonation",
      "outputs": [
        {
          "name": "",
          "type": "uint256"
        }
      ],
      "payable": false,
      "stateMutability": "nonpayable",
      "type": "function"
    },
    {
      "constant": false,
      "inputs": [
        {
          "name": "_donationId",
          "type": "uint256"
        },
        {
          "name": "_amount",
          "type": "uint256"
        },
        {
          "name": "_donor",
          "type": "address"
        }
      ],
      "name": "issueDonation",
      "outputs": [
        {
          "name": "",
          "type": "uint256"
        }
      ],
      "payable": false,
      "stateMutability": "nonpayable",
      "type": "function"
    },
    {
      "constant": false,
      "inputs": [
        {
          "name": "_donationId",
          "type": "uint256"
        }
      ],
      "name": "claimDonation",
      "outputs": [],
      "payable": false,
      "stateMutability": "nonpayable",
      "type": "function"
    },
    {
      "constant": false,
      "inputs": [
        {
          "name": "_donationId",
          "type": "uint256"
        }
      ],
      "name": "deleteDonation",
      "outputs": [],
      "payable": false,
      "stateMutability": "nonpayable",
      "type": "function"
    }
  ],
  "bytecode": "0x608060408190526005805460a060020a60ff02191690556014805460ff191690556020806200368b8339810160405251620000637f01ffc9a700000000000000000000000000000000000000000000000000000000640100000000620001b4810204565b620000977f80ac58cd00000000000000000000000000000000000000000000000000000000640100000000620001b4810204565b620000cb7f4f558e7900000000000000000000000000000000000000000000000000000000640100000000620001b4810204565b60058054600160a060020a031916331790553415620000e957600080fd5b336000908152600660205260409020805460ff1916600117905534156200010f57600080fd5b620001377389d24a6b4ccb1b6faa2625fe562bdd9a2326035964010000000062000221810204565b34156200014357600080fd5b6014805460ff1916821515179055604080518082018252601081527f47656e6573697320446f6e6174696f6e0000000000000000000000000000000060208083019190915282519081019092526000808352620001ac92309082640100000000620002b6810204565b505062000763565b7fffffffff000000000000000000000000000000000000000000000000000000008082161415620001e457600080fd5b7fffffffff00000000000000000000000000000000000000000000000000000000166000908152602081905260409020805460ff19166001179055565b600554600160a060020a031633146200023957600080fd5b60055474010000000000000000000000000000000000000000900460ff16156200026257600080fd5b60078054600160a060020a038316600160a060020a0319909116811790915560408051918252517f4fdce19f4b0cbd1527f06f55399a35098c9f02f5b98e8a5f5490315377331ec99181900360200190a150565b6000620002c26200069e565b5060408051606081018252600a805463ffffffff8116835260006020840181815294840181815260018301845592905282517fc65a7bb8d6351c1cf70c95a316cc6a92839c986682d98bc35f958f4883f9d2a860028302908101805496516001608060020a03199097166001608060020a03938416178316700100000000000000000000000000000000939097169290920295909517905590517fc65a7bb8d6351c1cf70c95a316cc6a92839c986682d98bc35f958f4883f9d2a99093018054600160a060020a031916600160a060020a039094169390931790925590620003b433826401000000006200058f810204565b6000818152600e602090815260409091208951620003d5928b0190620006be565b5060008181526010602090815260408083208054600160a060020a031916600160a060020a038b16179055601182528083208a9055600f825290912086516200042192880190620006be565b506000818152601360209081526040808320805460ff1916881515908117909155600b8054600101905581518084018c9052600160a060020a038b1692810192909252336080830181905260a083019190915260c08083528c51908301528b517f30a88d5e165079a604879dd83714c223069f6e58c508514cd6e8d2d91db211d0948d948d948d948d9490938d938392606084019260e08501928c0191908190849084905b83811015620004e0578181015183820152602001620004c6565b50505050905090810190601f1680156200050e5780820380516001836020036101000a031916815260200191505b50838103825286518152865160209182019188019080838360005b838110156200054357818101518382015260200162000529565b50505050905090810190601f168015620005715780820380516001836020036101000a031916815260200191505b509850505050505050505060405180910390a1979650505050505050565b600160a060020a0382161515620005a557600080fd5b620005ba8282640100000000620005f6810204565b6040518190600160a060020a038416906000907fddf252ad1be2c89b69c2b068fc378daa952ba7f163c4a11628f55a4df523b3ef908290a45050565b600081815260016020526040902054600160a060020a0316156200061957600080fd5b60008181526001602081815260408084208054600160a060020a031916600160a060020a03881690811790915584526003909152909120546200066a916401000000006200068a810262002cad1704565b600160a060020a0390921660009081526003602052604090209190915550565b818101828110156200069857fe5b92915050565b604080516060810182526000808252602082018190529181019190915290565b828054600181600116156101000203166002900490600052602060002090601f016020900481019282601f106200070157805160ff191683800117855562000731565b8280016001018555821562000731579182015b828111156200073157825182559160200191906001019062000714565b506200073f92915062000743565b5090565b6200076091905b808211156200073f57600081556001016200074a565b90565b612f1880620007736000396000f30060806040526004361061025b5763ffffffff7c010000000000000000000000000000000000000000000000000000000060003504166301e93bfd811461026a57806301ffc9a714610291578063081812fc146102df578063095ea7b3146103135780630a19bd24146103395780630abd95351461036057806319fa8f501461037757806323b872dd146103c157806329710388146103eb5780632d06177a1461040c5780633aeb0b0e1461042d5780633f4ba83a1461044557806342842e0e1461045a578063487a0d11146104845780634f558e791461053557806358c476b11461054d5780635c975abb146105685780636352211e1461057d57806370a0823114610595578063715018a6146105b657806383197ef0146105cb578063834cb5f7146105e05780638456cb59146105f55780638da5cb5b1461060a5780638e77ede71461061f5780639f727c2714610637578063a22cb4651461064c578063ac18de4314610672578063ac22278714610693578063af70dfa5146106ab578063affb2c84146106c3578063b219f916146106db578063b7411138146106e6578063b88d4fde146106fb578063bba598a01461076a578063ca926f1b146107f7578063cd7e80911461080f578063d3547adc146108c0578063d7c08ccf146108e1578063e985e9c5146108f9578063eb5f24da14610920578063edf5deb914610938578063ef07a81f1461094d578063f29505fd14610aa3578063f2fde38b14610abb578063f3ae241514610adc578063f4b9fa7514610afd578063f5074f4114610b12578063f8626af814610b33578063f967d2e614610b87575b34801561026757600080fd5b50005b34801561027657600080fd5b5061027f610b9f565b60408051918252519081900360200190f35b34801561029d57600080fd5b506102cb7fffffffff0000000000000000000000000000000000000000000000000000000060043516610ba5565b604080519115158252519081900360200190f35b3480156102eb57600080fd5b506102f7600435610bdc565b60408051600160a060020a039092168252519081900360200190f35b34801561031f57600080fd5b50610337600160a060020a0360043516602435610bf7565b005b34801561034557600080fd5b5061027f600435602435600160a060020a0360443516610cad565b610337600435600160a060020a0360243516610d99565b34801561038357600080fd5b5061038c610ebc565b604080517fffffffff000000000000000000000000000000000000000000000000000000009092168252519081900360200190f35b3480156103cd57600080fd5b50610337600160a060020a0360043581169060243516604435610ee0565b3480156103f757600080fd5b506102cb600160a060020a0360043516610f85565b34801561041857600080fd5b50610337600160a060020a0360043516610f9a565b34801561043957600080fd5b5061027f600435611034565b34801561045157600080fd5b50610337611046565b34801561046657600080fd5b50610337600160a060020a03600435811690602435166044356110d9565b34801561049057600080fd5b506040805160206004803580820135601f810184900484028501840190955284845261027f94369492936024939284019190819084018382808284375050604080516020888301358a018035601f8101839004830284018301909452838352979a89359a8a830135600160a060020a03169a9199909850606090910196509194509081019250819084018382808284375094975050505091351515925061110b915050565b34801561054157600080fd5b506102cb600435611186565b34801561055957600080fd5b5061027f6004356024356111a3565b34801561057457600080fd5b506102cb61130b565b34801561058957600080fd5b506102f760043561132c565b3480156105a157600080fd5b5061027f600160a060020a0360043516611356565b3480156105c257600080fd5b50610337611389565b3480156105d757600080fd5b506103376113f7565b3480156105ec57600080fd5b5061027f61141c565b34801561060157600080fd5b50610337611422565b34801561061657600080fd5b506102f76114cb565b34801561062b57600080fd5b506102cb6004356114da565b34801561064357600080fd5b506103376114ef565b34801561065857600080fd5b50610337600160a060020a0360043516602435151561157c565b34801561067e57600080fd5b50610337600160a060020a0360043516611600565b34801561069f57600080fd5b506102cb600435611697565b3480156106b757600080fd5b5061027f6004356116ac565b3480156106cf57600080fd5b506103376004356116be565b61027f600435611712565b3480156106f257600080fd5b5061027f6118a8565b34801561070757600080fd5b50604080516020601f60643560048181013592830184900484028501840190955281845261033794600160a060020a0381358116956024803590921695604435953695608494019181908401838280828437509497506118ae9650505050505050565b34801561077657600080fd5b506107826004356118ed565b6040805160208082528351818301528351919283929083019185019080838360005b838110156107bc5781810151838201526020016107a4565b50505050905090810190601f1680156107e95780820380516001836020036101000a031916815260200191505b509250505060405180910390f35b34801561080357600080fd5b50610782600435611988565b34801561081b57600080fd5b506040805160206004803580820135601f810184900484028501840190955284845261027f94369492936024939284019190819084018382808284375050604080516020888301358a018035601f8101839004830284018301909452838352979a89359a8a830135600160a060020a03169a919990985060609091019650919450908101925081908401838280828437509497505050509135151592506119f0915050565b3480156108cc57600080fd5b50610337600160a060020a0360043516611a61565b3480156108ed57600080fd5b506102f7600435611b01565b34801561090557600080fd5b506102cb600160a060020a0360043581169060243516611bdc565b34801561092c57600080fd5b50610337600435611c0a565b34801561094457600080fd5b506102cb611c91565b34801561095957600080fd5b50610965600435611c9a565b604051808b81526020018a81526020018060200189815260200188815260200187815260200186600160a060020a0316600160a060020a0316815260200185600160a060020a0316600160a060020a03168152602001806020018415151515815260200183810383528b818151815260200191508051906020019080838360005b838110156109fe5781810151838201526020016109e6565b50505050905090810190601f168015610a2b5780820380516001836020036101000a031916815260200191505b50838103825285518152855160209182019187019080838360005b83811015610a5e578181015183820152602001610a46565b50505050905090810190601f168015610a8b5780820380516001836020036101000a031916815260200191505b509c5050505050505050505050505060405180910390f35b348015610aaf57600080fd5b506102f7600435611eee565b348015610ac757600080fd5b50610337600160a060020a0360043516611f09565b348015610ae857600080fd5b506102cb600160a060020a0360043516611f2c565b348015610b0957600080fd5b506102f7611f4a565b348015610b1e57600080fd5b50610337600160a060020a0360043516611f59565b348015610b3f57600080fd5b50610b4b600435611f7c565b604080516fffffffffffffffffffffffffffffffff9485168152929093166020830152600160a060020a03168183015290519081900360600190f35b348015610b9357600080fd5b506102cb600435611fdd565b600c5481565b7fffffffff000000000000000000000000000000000000000000000000000000001660009081526020819052604090205460ff1690565b600090815260026020526040902054600160a060020a031690565b6000610c028261132c565b9050600160a060020a038381169082161415610c1d57600080fd5b33600160a060020a0382161480610c395750610c398133611bdc565b1515610c4457600080fd5b600082815260026020526040808220805473ffffffffffffffffffffffffffffffffffffffff1916600160a060020a0387811691821790925591518593918516917f8c5be1e5ebec7d5bd14f71427d1e84f3dd0314c0f7b2291e5b200ac8c7c3b92591a4505050565b336000908152600660205260408120548190819060ff161515610ccf57600080fd5b60145460ff161515610ce057600080fd5b60055474010000000000000000000000000000000000000000900460ff1615610d0857600080fd5b600a54869060008211610d1a57600080fd5b808210610d2657600080fd5b6fffffffffffffffffffffffffffffffff8110610d4257600080fd5b600a805489908110610d5057fe5b600091825260208220600290910201546fffffffffffffffffffffffffffffffff169450610d8390859089908990611ff2565b6000819052601660205298975050505050505050565b3360009081526015602052604081205460ff161515610db757600080fd5b60055474010000000000000000000000000000000000000000900460ff1615610ddf57600080fd5b600a805484908110610ded57fe5b600091825260208083206002909202909101546fffffffffffffffffffffffffffffffff16808352601690915260409091205490915060ff1615610e3057600080fd5b60008181526008602052604090205460ff1615610e4c57600080fd5b600081815260106020526040902054600160a060020a03161515610e6f57600080fd5b6000818152601160205260408120541115610ea95760008181526011602090815260408083205460129092529091205410610ea957600080fd5b610eb68334846001611ff2565b50505050565b7f01ffc9a70000000000000000000000000000000000000000000000000000000081565b80610eeb3382612277565b1515610ef657600080fd5b600160a060020a0384161515610f0b57600080fd5b600160a060020a0383161515610f2057600080fd5b610f2a84836122d6565b610f348483612345565b610f3e83836123db565b8183600160a060020a031685600160a060020a03167fddf252ad1be2c89b69c2b068fc378daa952ba7f163c4a11628f55a4df523b3ef60405160405180910390a450505050565b60156020526000908152604090205460ff1681565b60055474010000000000000000000000000000000000000000900460ff1615610fc257600080fd5b600554600160a060020a03163314610fd957600080fd5b600160a060020a038116600081815260066020908152604091829020805460ff19166001179055815192835290517f3630096a7f9a158ab9fae41e86bfe31fd2202585a26a9668242672566dae028d9281900390910190a150565b60116020526000908152604090205481565b600554600160a060020a0316331461105d57600080fd5b60055474010000000000000000000000000000000000000000900460ff16151561108657600080fd5b600580547fffffffffffffffffffffff00ffffffffffffffffffffffffffffffffffffffff1690556040517f7805862f689e2f13df9f062ff482ad3ad112aca9e0847911ed832e158c525b3390600090a1565b806110e43382612277565b15156110ef57600080fd5b610eb684848460206040519081016040528060008152506118ae565b3360009081526006602052604081205460ff16151561112957600080fd5b60055474010000000000000000000000000000000000000000900460ff161561115157600080fd5b600a546fffffffffffffffffffffffffffffffff1161116f57600080fd5b61117c868686868661246b565b9695505050505050565b600090815260016020526040902054600160a060020a0316151590565b600554600090819074010000000000000000000000000000000000000000900460ff16156111d057600080fd5b600a548490600082116111e257600080fd5b8082106111ee57600080fd5b6fffffffffffffffffffffffffffffffff811061120a57600080fd5b6000851161121757600080fd5b600a80548790811061122557fe5b600091825260208083206002909202909101546fffffffffffffffffffffffffffffffff16808352600890915260409091205490935060ff16151561126957600080fd5b600083815260106020526040902054600160a060020a0316151561128c57600080fd5b60008381526011602052604081205411156112c657600083815260116020908152604080832054601290925290912054106112c657600080fd5b6000838152601060205260409020546112ea903390600160a060020a031687612486565b600086815260126020526040902080548601905561117c8386336001611ff2565b60055474010000000000000000000000000000000000000000900460ff1681565b600081815260016020526040812054600160a060020a031680151561135057600080fd5b92915050565b6000600160a060020a038216151561136d57600080fd5b50600160a060020a031660009081526003602052604090205490565b600554600160a060020a031633146113a057600080fd5b600554604051600160a060020a03909116907ff8df31144d9c2f0f6b59d69b8b98abd5459d07f2742c4df920b25aae33c6482090600090a26005805473ffffffffffffffffffffffffffffffffffffffff19169055565b600554600160a060020a0316331461140e57600080fd5b600554600160a060020a0316ff5b600b5481565b600554600160a060020a0316331461143957600080fd5b60055474010000000000000000000000000000000000000000900460ff161561146157600080fd5b600580547fffffffffffffffffffffff00ffffffffffffffffffffffffffffffffffffffff16740100000000000000000000000000000000000000001790556040517f6985a02210a168e66602d3235cb6db0e70f92b3ba4d376a33c0f3d9434bff62590600090a1565b600554600160a060020a031681565b60166020526000908152604090205460ff1681565b600554600090600160a060020a0316331461150957600080fd5b50600554604051303191600160a060020a03169082156108fc029083906000818181858888f19350505050158015611545573d6000803e3d6000fd5b506040805182815290517fb4d18a586c1f06f93c328e9359797f1da3909bf11e0df0f2499097157037af4c9181900360200190a150565b600160a060020a03821633141561159257600080fd5b336000818152600460209081526040808320600160a060020a03871680855290835292819020805460ff1916861515908117909155815190815290519293927f17307eab39ab6107e8899845ad3d59bd9653f200f220920489ca2b5937696c31929181900390910190a35050565b60055474010000000000000000000000000000000000000000900460ff161561162857600080fd5b600554600160a060020a0316331461163f57600080fd5b600160a060020a038116600081815260066020908152604091829020805460ff19169055815192835290517f1e25ed4cabec84d314dc176241019653f237da01f2bdd3a10cb0f38b33da67639281900390910190a150565b60136020526000908152604090205460ff1681565b60126020526000908152604090205481565b60055474010000000000000000000000000000000000000000900460ff16156116e657600080fd5b806116f08161132c565b600160a060020a0316331461170457600080fd5b61170e3383612534565b5050565b600554600090819074010000000000000000000000000000000000000000900460ff161561173f57600080fd5b600a5483906000821161175157600080fd5b80821061175d57600080fd5b6fffffffffffffffffffffffffffffffff811061177957600080fd5b6000341161178657600080fd5b600a80548690811061179457fe5b600091825260208083206002909202909101546fffffffffffffffffffffffffffffffff16808352600890915260409091205490935060ff16156117d757600080fd5b600083815260106020526040902054600160a060020a031615156117fa57600080fd5b6000838152601160205260408120541115611834576000838152601160209081526040808320546012909252909120541061183457600080fd5b600083815260106020526040808220549051600160a060020a03909116913480156108fc02929091818181858888f19350505050158015611879573d6000803e3d6000fd5b50600085815260126020526040902080543490810190915561189f908490336001611ff2565b95945050505050565b600d5481565b816118b93382612277565b15156118c457600080fd5b6118cf858585610ee0565b6118db8585858561262b565b15156118e657600080fd5b5050505050565b600e6020908152600091825260409182902080548351601f6002600019610100600186161502019093169290920491820184900484028101840190945280845290918301828280156119805780601f1061195557610100808354040283529160200191611980565b820191906000526020600020905b81548152906001019060200180831161196357829003601f168201915b505050505081565b600f6020908152600091825260409182902080548351601f6002600019610100600186161502019093169290920491820184900484028101840190945280845290918301828280156119805780601f1061195557610100808354040283529160200191611980565b3360009081526006602052604081205460ff161515611a0e57600080fd5b60055474010000000000000000000000000000000000000000900460ff1615611a3657600080fd5b600a546fffffffffffffffffffffffffffffffff11611a5457600080fd5b61117c86868686866127b0565b600554600160a060020a03163314611a7857600080fd5b60055474010000000000000000000000000000000000000000900460ff1615611aa057600080fd5b60078054600160a060020a03831673ffffffffffffffffffffffffffffffffffffffff19909116811790915560408051918252517f4fdce19f4b0cbd1527f06f55399a35098c9f02f5b98e8a5f5490315377331ec99181900360200190a150565b600a5460009081908390828211611b1757600080fd5b808210611b2357600080fd5b6fffffffffffffffffffffffffffffffff8110611b3f57600080fd5b60055474010000000000000000000000000000000000000000900460ff1615611b6757600080fd5b60008581526016602052604090205460ff1615611b8357600080fd5b84611b8c612d2d565b90815260405190819003602001906000f080158015611baf573d6000803e3d6000fd5b50600160a060020a0381166000908152601560205260409020805460ff1916600117905595945050505050565b600160a060020a03918216600090815260046020908152604080832093909416825291909152205460ff1690565b600554600160a060020a03163314611c2157600080fd5b60055474010000000000000000000000000000000000000000900460ff1615611c4957600080fd5b600a54819060008211611c5b57600080fd5b808210611c6757600080fd5b6fffffffffffffffffffffffffffffffff8110611c8357600080fd5b611c8c83612aad565b505050565b60145460ff1681565b600080606060008060008060006060600080600a8c815481101515611cbb57fe5b60009182526020808320600292830201546fffffffffffffffffffffffffffffffff16808452600e8252604093849020805485516101006001831615026000190190911694909404601f8101849004840285018401909552848452909e508f9d508e9450919290830182828015611d735780601f10611d4857610100808354040283529160200191611d73565b820191906000526020600020905b815481529060010190602001808311611d5657829003601f168201915b505050600084815260116020908152604080832054601290925290912054600a8054959e50919c509a50928f925082109050611dab57fe5b60009182526020808320600292909202909101548383526010909152604090912054600a80547001000000000000000000000000000000009093046fffffffffffffffffffffffffffffffff169850600160a060020a039091169650908d908110611e1257fe5b60009182526020808320600292830201600190810154858552600f8352604094859020805486516101009482161594909402600019011694909404601f8101849004840283018401909552848252600160a060020a031697509290830182828015611ebe5780601f10611e9357610100808354040283529160200191611ebe565b820191906000526020600020905b815481529060010190602001808311611ea157829003601f168201915b50505060009e8f52505060136020526040909c20549a9c999b989a979996989597949693959460ff169392505050565b601060205260009081526040902054600160a060020a031681565b600554600160a060020a03163314611f2057600080fd5b611f2981612bc2565b50565b600160a060020a031660009081526006602052604090205460ff1690565b600754600160a060020a031681565b600554600160a060020a03163314611f7057600080fd5b80600160a060020a0316ff5b600a805482908110611f8a57fe5b6000918252602090912060029091020180546001909101546fffffffffffffffffffffffffffffffff808316935070010000000000000000000000000000000090920490911690600160a060020a031683565b60086020526000908152604090205460ff1681565b6000611ffc612d3c565b60008681526013602052604081205460ff161561204e576040805160608101825263ffffffff891681526fffffffffffffffffffffffffffffffff88166020820152600091810191909152915061208d565b6040805160608101825263ffffffff891681526fffffffffffffffffffffffffffffffff88166020820152600160a060020a0387169181019190915291505b50600a8054600181018255600091825282517fc65a7bb8d6351c1cf70c95a316cc6a92839c986682d98bc35f958f4883f9d2a86002830290810180546020808801517fffffffffffffffffffffffffffffffff000000000000000000000000000000009092166fffffffffffffffffffffffffffffffff95861617851670010000000000000000000000000000000095909216949094021790556040808601517fc65a7bb8d6351c1cf70c95a316cc6a92839c986682d98bc35f958f4883f9d2a9909201805473ffffffffffffffffffffffffffffffffffffffff1916600160a060020a039093169290921790915589845260139091529091205460ff16156121aa576000818152601360205260409020805460ff191660011790555b8315612216576121ba8582612c40565b600c805460010190556040805182815260208101889052600160a060020a0387168183015233606082015290517f01ba0d8add316a9be7eba11feeff61d8fae5b72133e5a91c79b656b64c126b3a9181900360800190a161117c565b600d805460010190556040805188815260208101889052600160a060020a0387168183015233606082015290517f4f0f385097077cd05c6807c36e096d87e30c21ffea8a76b916ce018dc4c92c8a9181900360800190a19695505050505050565b6000806122838361132c565b905080600160a060020a031684600160a060020a031614806122be575083600160a060020a03166122b384610bdc565b600160a060020a0316145b806122ce57506122ce8185611bdc565b949350505050565b81600160a060020a03166122e98261132c565b600160a060020a0316146122fc57600080fd5b600081815260026020526040902054600160a060020a03161561170e576000908152600260205260409020805473ffffffffffffffffffffffffffffffffffffffff1916905550565b81600160a060020a03166123588261132c565b600160a060020a03161461236b57600080fd5b600160a060020a03821660009081526003602052604090205461239590600163ffffffff612c9b16565b600160a060020a03909216600090815260036020908152604080832094909455918152600190915220805473ffffffffffffffffffffffffffffffffffffffff19169055565b600081815260016020526040902054600160a060020a0316156123fd57600080fd5b6000818152600160208181526040808420805473ffffffffffffffffffffffffffffffffffffffff1916600160a060020a038816908117909155845260039091529091205461244b91612cad565b600160a060020a0390921660009081526003602052604090209190915550565b60008061247b87878787876127b0565b905061117c81612cba565b600754604080517f23b872dd000000000000000000000000000000000000000000000000000000008152600160a060020a038681166004830152858116602483015260448201859052915191909216916323b872dd9160648083019260209291908290030181600087803b1580156124fd57600080fd5b505af1158015612511573d6000803e3d6000fd5b505050506040513d602081101561252757600080fd5b50511515611c8c57600080fd5b60008181526013602052604090205460ff16151560011461255457600080fd5b600a8054600091908390811061256657fe5b6000918252602090912060016002909202010154600160a060020a03161461258d57600080fd5b81600a8281548110151561259d57fe5b60009182526020808320600292909202909101600101805473ffffffffffffffffffffffffffffffffffffffff1916600160a060020a0394851617905583825260138152604091829020805460ff1916905581519285168352820183905280517f0377dca87f89942165a20294c2113f0c62bf4048fe30988b12275663190010089281900390910190a15050565b60008061264085600160a060020a0316612cd5565b151561264f57600191506127a7565b6040517f150b7a020000000000000000000000000000000000000000000000000000000081523360048201818152600160a060020a03898116602485015260448401889052608060648501908152875160848601528751918a169463150b7a0294938c938b938b93909160a490910190602085019080838360005b838110156126e25781810151838201526020016126ca565b50505050905090810190601f16801561270f5780820380516001836020036101000a031916815260200191505b5095505050505050602060405180830381600087803b15801561273157600080fd5b505af1158015612745573d6000803e3d6000fd5b505050506040513d602081101561275b57600080fd5b50517fffffffff0000000000000000000000000000000000000000000000000000000081167f150b7a020000000000000000000000000000000000000000000000000000000014925090505b50949350505050565b60006127ba612d3c565b5060408051606081018252600a805463ffffffff8116835260006020840181815294840181815260018301845592905282517fc65a7bb8d6351c1cf70c95a316cc6a92839c986682d98bc35f958f4883f9d2a860028302908101805496517fffffffffffffffffffffffffffffffff000000000000000000000000000000009097166fffffffffffffffffffffffffffffffff938416178316700100000000000000000000000000000000939097169290920295909517905590517fc65a7bb8d6351c1cf70c95a316cc6a92839c986682d98bc35f958f4883f9d2a9909301805473ffffffffffffffffffffffffffffffffffffffff1916600160a060020a0390941693909317909255906128cf3382612c40565b6000818152600e6020908152604090912089516128ee928b0190612d5c565b506000818152601060209081526040808320805473ffffffffffffffffffffffffffffffffffffffff1916600160a060020a038b16179055601182528083208a9055600f8252909120865161294592880190612d5c565b506000818152601360209081526040808320805460ff1916881515908117909155600b8054600101905581518084018c9052600160a060020a038b1692810192909252336080830181905260a083019190915260c08083528c51908301528b517f30a88d5e165079a604879dd83714c223069f6e58c508514cd6e8d2d91db211d0948d948d948d948d9490938d938392606084019260e08501928c0191908190849084905b83811015612a025781810151838201526020016129ea565b50505050905090810190601f168015612a2f5780820380516001836020036101000a031916815260200191505b50838103825286518152865160209182019188019080838360005b83811015612a62578181015183820152602001612a4a565b50505050905090810190601f168015612a8f5780820380516001836020036101000a031916815260200191505b509850505050505050505060405180910390a1979650505050505050565b600a805482908110612abb57fe5b600091825260208083206002909202909101828155600101805473ffffffffffffffffffffffffffffffffffffffff1916905560408051808301808352848252858552600e90935292209151612b12929190612d5c565b506040805160208181018084526000808452858152600f9092529290209051612b3b9290612d5c565b506000818152601060209081526040808320805473ffffffffffffffffffffffffffffffffffffffff19169055601182528083208390556012909152812055612b8c612b868261132c565b82612cdd565b6040805182815290517f5176aa621c6f432175967e054005579bdf32967900a670d2cd6d9ba935bc2c089181900360200190a150565b600160a060020a0381161515612bd757600080fd5b600554604051600160a060020a038084169216907f8be0079c531659141344cd1fd0a4f28419497f9722a3daafe3b4186f6b6457e090600090a36005805473ffffffffffffffffffffffffffffffffffffffff1916600160a060020a0392909216919091179055565b600160a060020a0382161515612c5557600080fd5b612c5f82826123db565b6040518190600160a060020a038416906000907fddf252ad1be2c89b69c2b068fc378daa952ba7f163c4a11628f55a4df523b3ef908290a45050565b600082821115612ca757fe5b50900390565b8181018281101561135057fe5b6000908152600860205260409020805460ff19166001179055565b6000903b1190565b612ce782826122d6565b612cf18282612345565b6040518190600090600160a060020a038516907fddf252ad1be2c89b69c2b068fc378daa952ba7f163c4a11628f55a4df523b3ef908390a45050565b60405160f580612df883390190565b604080516060810182526000808252602082018190529181019190915290565b828054600181600116156101000203166002900490600052602060002090601f016020900481019282601f10612d9d57805160ff1916838001178555612dca565b82800160010185558215612dca579182015b82811115612dca578251825591602001919060010190612daf565b50612dd6929150612dda565b5090565b612df491905b80821115612dd65760008155600101612de0565b90560060806040526040516020806100f58339810160405251341561002057600080fd5b60015560008054600160a060020a0319163317905560b2806100436000396000f30060806040819052600080546001547f0abd95350000000000000000000000000000000000000000000000000000000084526084523360a45273ffffffffffffffffffffffffffffffffffffffff1691630abd953591349160c491906044818588803b158015606c57600080fd5b505af1158015607f573d6000803e3d6000fd5b50505050500000a165627a7a7230582076681969cc4e0fd0ec18edfeed450b4ca5ff41e31054ce77dbf4450b5930023a0029a165627a7a72305820d277c03079f2406d08d0849fa1cb8c77a3d68296cad0db7f83b46a27642f0db40029",
  "source": "pragma solidity 0.4.24;\n\n\nimport \"zeppelin-solidity/contracts/lifecycle/Destructible.sol\";\nimport \"./Managed.sol\";\nimport \"./DonationCore.sol\";\n\n\n// Todo\n// Destroy Proxy once goal is met\ncontract Proxy {\n  Heritage heritage;\n  uint256 donationId;\n\n  constructor(uint256 _donationId) public payable {\n    require(msg.value == 0);\n\n    donationId = _donationId;\n    heritage = Heritage(msg.sender);\n  }\n\n  function() public payable {\n    heritage.proxyDonation.value(msg.value)(donationId, msg.sender);\n  }\n}\n\n\ncontract Heritage is Destructible, Managed, DonationCore {\n  uint256 constant MAX_DONATIONS = 2**128 - 1;\n  bool public issueDonationEnabled = false;\n  mapping (address => bool) public isProxy;\n  mapping (uint256 => bool) public isFiat;\n\n  modifier issueDonationIsEnabled() {\n    require(issueDonationEnabled);\n    _;\n  }\n\n  modifier donationIdIsValid(uint256 _donationId) {\n    uint256 totalDonations = donations.length;\n    // Cannot debelete Genesis\n    require(_donationId > 0);\n    // Must be an existing donation\n    require(_donationId < totalDonations);\n    // 2^32-1\n    require(totalDonations < MAX_DONATIONS);\n    _;\n  }\n\n  modifier onlyTokenOwner(uint256 _donationId) {\n    require(msg.sender == ownerOf(_donationId));\n    _;\n  }\n\n  modifier onlyProxy() {\n    require(isProxy[msg.sender]);\n    _;\n  }\n\n  event ReclaimEther(uint256 balance);\n\n  constructor(bool enableIssueDonation) public payable {\n    require(msg.value == 0);\n\n    issueDonationEnabled = enableIssueDonation;\n\n    _createFundraiser(\"Genesis Donation\", 0, this, \"\", false);\n  }\n\n  // Do not accept any transactions that send Ether.\n  function() external {\n  }\n\n  // Cannot prevent Ether from being mined/self-destructed to this contract\n  // reclaim lost Ether.\n  function reclaimEther() external onlyOwner {\n    uint256 _balance = address(this).balance;\n\n    owner.transfer(_balance);\n    emit ReclaimEther(_balance);\n  }\n\n  function createFundraiser(\n    string _description,\n    uint256 _goal,\n    address _beneficiary,\n    string _taxId,\n    bool _claimable\n  )\n    public\n    onlyManagers\n    whenNotPaused\n    returns (uint256)\n  {\n    require(donations.length < MAX_DONATIONS);\n    return _createFundraiser(_description, _goal, _beneficiary, _taxId, _claimable);\n  }\n\n  function createDAIFundraiser(\n    string _description,\n    uint256 _goal,\n    address _beneficiary,\n    string _taxId,\n    bool _claimable\n  )\n    public\n    onlyManagers\n    whenNotPaused\n    returns (uint256)\n  {\n    require(donations.length < MAX_DONATIONS);\n    return _createDAIFundraiser(_description, _goal, _beneficiary, _taxId, _claimable);\n  }\n\n  function proxyDonation(\n    uint256 _donationId,\n    address _donor\n  )\n    public\n    payable\n    onlyProxy\n    whenNotPaused\n  {\n    uint256 donationId = donations[_donationId].donationId;\n\n    // Is not a token/fiat donation\n    require(!isFiat[donationId]);\n    require(!isDai[donationId]);\n    // Cannot donate to deleted token/null address\n    require(donationBeneficiary[donationId] != address(0));\n    // A goal of 0 is uncapped\n    if (donationGoal[donationId] > 0) {\n      // It must not have reached it's goal\n      require(donationRaised[donationId] < donationGoal[donationId]);\n    }\n    _makeDonation(_donationId, msg.value, _donor, true);\n  }\n\n  function createFundraiserProxy(uint256 _donationId)\n    public\n    donationIdIsValid(_donationId)\n    whenNotPaused\n    returns (address proxyAddress)\n  {\n    require(!isFiat[_donationId]);\n    Proxy p = new Proxy(_donationId);\n    isProxy[p] = true;\n    return p;\n  }\n\n  // Make a donation based on Id.\n  // Donate directly or proxy through another donation.\n  function makeDonation(uint256 _donationId)\n    public\n    payable\n    whenNotPaused\n    donationIdIsValid(_donationId)\n    returns (uint256)\n  {\n    require(msg.value > 0);\n    // Lookup the original donation\n    uint256 donationId = donations[_donationId].donationId;\n    // Is not a token donation\n    require(!isDai[donationId]);\n    // Cannot donate to deleted token/null address\n    require(donationBeneficiary[donationId] != address(0));\n    // A goal of 0 is uncapped\n    if (donationGoal[donationId] > 0) {\n      // It must not have reached it's goal\n      require(donationRaised[donationId] < donationGoal[donationId]);\n    }\n\n    // Send the tx value to the charity\n    donationBeneficiary[donationId].transfer(msg.value);\n    donationRaised[_donationId] += msg.value;\n    return _makeDonation(donationId, msg.value, msg.sender, true);\n  }\n\n  // Make a DAI donation based on Id.\n  function makeDAIDonation(uint256 _donationId, uint256 _amount)\n    public\n    whenNotPaused\n    donationIdIsValid(_donationId)\n    returns (uint256)\n  {\n    require(_amount > 0);\n    // Lookup the original donation\n    uint256 donationId = donations[_donationId].donationId;\n    // Must be a DAI donation token\n    require(isDai[donationId]);\n    // Cannot donate to deleted token/null address\n    require(donationBeneficiary[donationId] != address(0));\n    // A goal of 0 is uncapped\n    if (donationGoal[donationId] > 0) {\n      // It must not have reached it's goal\n      require(donationRaised[donationId] < donationGoal[donationId]);\n    }\n\n    // Send the tx value to the charity\n    _transferDai(msg.sender, donationBeneficiary[donationId], _amount);\n    donationRaised[_donationId] += _amount;\n    return _makeDonation(donationId, _amount, msg.sender, true);\n  }\n\n  // Managers may issue donations directly. A way to accept fiat donations\n  // and credit an address. Optional -- disable/enable at deployment.\n  // Does not effect contract totals. Must issue to a created donation.\n  function issueDonation(uint256 _donationId, uint256 _amount, address _donor)\n    public\n    onlyManagers\n    issueDonationIsEnabled\n    whenNotPaused\n    donationIdIsValid(_donationId)\n    returns (uint256)\n  {\n    // Lookup the original donation\n    uint256 donationId = donations[_donationId].donationId;\n\n    uint256 id = _makeDonation(donationId, _amount, _donor, false);\n    isFiat[id];\n    return id;\n  }\n\n  function claimDonation(uint256 _donationId)\n    public\n    whenNotPaused\n    onlyTokenOwner(_donationId)\n  {\n    _claimDonation(msg.sender, _donationId);\n  }\n\n  function deleteDonation(uint256 _donationId)\n    public\n    onlyOwner\n    whenNotPaused\n    donationIdIsValid(_donationId)\n  {\n    _deleteDonation(_donationId);\n  }\n}",
  "sourcePath": "/home/hayek/proj/Notary/contracts/Heritage.sol",
  "compiler": {
    "name": "solc",
    "version": "0.4.24+commit.e67f0147.Emscripten.clang"
  },
  "schemaVersion": "2.0.1",
  "updatedAt": "2018-09-30T06:59:43.340Z"
}