{
  "contractName": "DaiDonation",
  "abi": [
    {
      "constant": false,
      "inputs": [],
      "name": "unpause",
      "outputs": [],
      "payable": false,
      "stateMutability": "nonpayable",
      "type": "function"
    },
    {
      "constant": true,
      "inputs": [],
      "name": "paused",
      "outputs": [
        {
          "name": "",
          "type": "bool"
        }
      ],
      "payable": false,
      "stateMutability": "view",
      "type": "function"
    },
    {
      "constant": false,
      "inputs": [],
      "name": "renounceOwnership",
      "outputs": [],
      "payable": false,
      "stateMutability": "nonpayable",
      "type": "function"
    },
    {
      "constant": false,
      "inputs": [],
      "name": "pause",
      "outputs": [],
      "payable": false,
      "stateMutability": "nonpayable",
      "type": "function"
    },
    {
      "constant": true,
      "inputs": [],
      "name": "owner",
      "outputs": [
        {
          "name": "",
          "type": "address"
        }
      ],
      "payable": false,
      "stateMutability": "view",
      "type": "function"
    },
    {
      "constant": false,
      "inputs": [
        {
          "name": "_newOwner",
          "type": "address"
        }
      ],
      "name": "transferOwnership",
      "outputs": [],
      "payable": false,
      "stateMutability": "nonpayable",
      "type": "function"
    },
    {
      "constant": true,
      "inputs": [],
      "name": "dai",
      "outputs": [
        {
          "name": "",
          "type": "address"
        }
      ],
      "payable": false,
      "stateMutability": "view",
      "type": "function"
    },
    {
      "constant": true,
      "inputs": [
        {
          "name": "",
          "type": "uint256"
        }
      ],
      "name": "isDai",
      "outputs": [
        {
          "name": "",
          "type": "bool"
        }
      ],
      "payable": false,
      "stateMutability": "view",
      "type": "function"
    },
    {
      "inputs": [],
      "payable": true,
      "stateMutability": "payable",
      "type": "constructor"
    },
    {
      "anonymous": false,
      "inputs": [
        {
          "indexed": false,
          "name": "newAddress",
          "type": "address"
        }
      ],
      "name": "ChangeDAIAddress",
      "type": "event"
    },
    {
      "anonymous": false,
      "inputs": [],
      "name": "Pause",
      "type": "event"
    },
    {
      "anonymous": false,
      "inputs": [],
      "name": "Unpause",
      "type": "event"
    },
    {
      "anonymous": false,
      "inputs": [
        {
          "indexed": true,
          "name": "previousOwner",
          "type": "address"
        }
      ],
      "name": "OwnershipRenounced",
      "type": "event"
    },
    {
      "anonymous": false,
      "inputs": [
        {
          "indexed": true,
          "name": "previousOwner",
          "type": "address"
        },
        {
          "indexed": true,
          "name": "newOwner",
          "type": "address"
        }
      ],
      "name": "OwnershipTransferred",
      "type": "event"
    },
    {
      "constant": false,
      "inputs": [
        {
          "name": "_daiContract",
          "type": "address"
        }
      ],
      "name": "changeDaiAddress",
      "outputs": [],
      "payable": false,
      "stateMutability": "nonpayable",
      "type": "function"
    }
  ],
  "bytecode": "0x608060405260008054600160a860020a03191633179055341561002157600080fd5b6100477389d24a6b4ccb1b6faa2625fe562bdd9a2326035964010000000061004c810204565b6100df565b600054600160a060020a0316331461006357600080fd5b60005474010000000000000000000000000000000000000000900460ff161561008b57600080fd5b60018054600160a060020a038316600160a060020a0319909116811790915560408051918252517f4fdce19f4b0cbd1527f06f55399a35098c9f02f5b98e8a5f5490315377331ec99181900360200190a150565b6104a2806100ee6000396000f3006080604052600436106100985763ffffffff7c01000000000000000000000000000000000000000000000000000000006000350416633f4ba83a811461009d5780635c975abb146100b4578063715018a6146100dd5780638456cb59146100f25780638da5cb5b14610107578063d3547adc14610138578063f2fde38b14610159578063f4b9fa751461017a578063f967d2e61461018f575b600080fd5b3480156100a957600080fd5b506100b26101a7565b005b3480156100c057600080fd5b506100c961021d565b604080519115158252519081900360200190f35b3480156100e957600080fd5b506100b261022d565b3480156100fe57600080fd5b506100b2610299565b34801561011357600080fd5b5061011c610314565b60408051600160a060020a039092168252519081900360200190f35b34801561014457600080fd5b506100b2600160a060020a0360043516610323565b34801561016557600080fd5b506100b2600160a060020a03600435166103b2565b34801561018657600080fd5b5061011c6103d5565b34801561019b57600080fd5b506100c96004356103e4565b600054600160a060020a031633146101be57600080fd5b60005460a060020a900460ff1615156101d657600080fd5b6000805474ff0000000000000000000000000000000000000000191681556040517f7805862f689e2f13df9f062ff482ad3ad112aca9e0847911ed832e158c525b339190a1565b60005460a060020a900460ff1681565b600054600160a060020a0316331461024457600080fd5b60008054604051600160a060020a03909116917ff8df31144d9c2f0f6b59d69b8b98abd5459d07f2742c4df920b25aae33c6482091a26000805473ffffffffffffffffffffffffffffffffffffffff19169055565b600054600160a060020a031633146102b057600080fd5b60005460a060020a900460ff16156102c757600080fd5b6000805474ff0000000000000000000000000000000000000000191660a060020a1781556040517f6985a02210a168e66602d3235cb6db0e70f92b3ba4d376a33c0f3d9434bff6259190a1565b600054600160a060020a031681565b600054600160a060020a0316331461033a57600080fd5b60005460a060020a900460ff161561035157600080fd5b60018054600160a060020a03831673ffffffffffffffffffffffffffffffffffffffff19909116811790915560408051918252517f4fdce19f4b0cbd1527f06f55399a35098c9f02f5b98e8a5f5490315377331ec99181900360200190a150565b600054600160a060020a031633146103c957600080fd5b6103d2816103f9565b50565b600154600160a060020a031681565b60026020526000908152604090205460ff1681565b600160a060020a038116151561040e57600080fd5b60008054604051600160a060020a03808516939216917f8be0079c531659141344cd1fd0a4f28419497f9722a3daafe3b4186f6b6457e091a36000805473ffffffffffffffffffffffffffffffffffffffff1916600160a060020a03929092169190911790555600a165627a7a723058208ae86a411b9062041ff8d4f141435bc071a4d798cdca9bd5d4dcd59c3bd245ac0029",
  "source": "pragma solidity 0.4.24;\n\nimport \"zeppelin-solidity/contracts/ownership/Ownable.sol\";\nimport \"zeppelin-solidity/contracts/lifecycle/Pausable.sol\";\n\n\ncontract Token {\n  function transferFrom(address _from, address _to, uint256 _value) public returns (bool);\n}\n\n\n// TODO Abstract to ERC-20, manage multple addresses/tokens, default to DAI\ncontract DaiDonation is Ownable, Pausable {\n  Token public dai;\n  mapping(uint256 => bool) public isDai;\n  uint256 totalDAIRaised;\n\n  event ChangeDAIAddress(address newAddress);\n\n  constructor() public payable {\n    require(msg.value == 0);\n    changeDaiAddress(0x89d24A6b4CcB1B6fAA2625fE562bDD9a23260359); // Mainnet Dai Address\n  }\n\n  function changeDaiAddress(address _daiContract) public onlyOwner whenNotPaused {\n    dai = Token(_daiContract);\n    emit ChangeDAIAddress(_daiContract);\n  }\n\n  function _trackDaiDonation(uint256 _id) internal {\n    isDai[_id] = true;\n  }\n\n  function _transferDai(address _from, address _to, uint256 _amount) internal {\n    require(dai.transferFrom(_from, _to, _amount));\n  }\n}",
  "sourcePath": "/home/hayek/proj/Notary/contracts/DaiDonation.sol",
  "compiler": {
    "name": "solc",
    "version": "0.4.24+commit.e67f0147.Emscripten.clang"
  },
  "schemaVersion": "2.0.1",
  "updatedAt": "2018-10-25T04:02:38.514Z"
}