{
  "contractName": "DonationCore",
  "abi": [
    {
      "constant": true,
      "inputs": [],
      "name": "totalDonationsMade",
      "outputs": [
        {
          "name": "",
          "type": "uint256"
        }
      ],
      "payable": false,
      "stateMutability": "view",
      "type": "function"
    },
    {
      "constant": true,
      "inputs": [
        {
          "name": "_interfaceId",
          "type": "bytes4"
        }
      ],
      "name": "supportsInterface",
      "outputs": [
        {
          "name": "",
          "type": "bool"
        }
      ],
      "payable": false,
      "stateMutability": "view",
      "type": "function"
    },
    {
      "constant": true,
      "inputs": [
        {
          "name": "_tokenId",
          "type": "uint256"
        }
      ],
      "name": "getApproved",
      "outputs": [
        {
          "name": "",
          "type": "address"
        }
      ],
      "payable": false,
      "stateMutability": "view",
      "type": "function"
    },
    {
      "constant": false,
      "inputs": [
        {
          "name": "_to",
          "type": "address"
        },
        {
          "name": "_tokenId",
          "type": "uint256"
        }
      ],
      "name": "approve",
      "outputs": [],
      "payable": false,
      "stateMutability": "nonpayable",
      "type": "function"
    },
    {
      "constant": true,
      "inputs": [],
      "name": "InterfaceId_ERC165",
      "outputs": [
        {
          "name": "",
          "type": "bytes4"
        }
      ],
      "payable": false,
      "stateMutability": "view",
      "type": "function"
    },
    {
      "constant": false,
      "inputs": [
        {
          "name": "_from",
          "type": "address"
        },
        {
          "name": "_to",
          "type": "address"
        },
        {
          "name": "_tokenId",
          "type": "uint256"
        }
      ],
      "name": "transferFrom",
      "outputs": [],
      "payable": false,
      "stateMutability": "nonpayable",
      "type": "function"
    },
    {
      "constant": true,
      "inputs": [
        {
          "name": "",
          "type": "uint256"
        }
      ],
      "name": "donationGoal",
      "outputs": [
        {
          "name": "",
          "type": "uint256"
        }
      ],
      "payable": false,
      "stateMutability": "view",
      "type": "function"
    },
    {
      "constant": false,
      "inputs": [],
      "name": "unpause",
      "outputs": [],
      "payable": false,
      "stateMutability": "nonpayable",
      "type": "function"
    },
    {
      "constant": false,
      "inputs": [
        {
          "name": "_from",
          "type": "address"
        },
        {
          "name": "_to",
          "type": "address"
        },
        {
          "name": "_tokenId",
          "type": "uint256"
        }
      ],
      "name": "safeTransferFrom",
      "outputs": [],
      "payable": false,
      "stateMutability": "nonpayable",
      "type": "function"
    },
    {
      "constant": true,
      "inputs": [
        {
          "name": "_tokenId",
          "type": "uint256"
        }
      ],
      "name": "exists",
      "outputs": [
        {
          "name": "",
          "type": "bool"
        }
      ],
      "payable": false,
      "stateMutability": "view",
      "type": "function"
    },
    {
      "constant": true,
      "inputs": [],
      "name": "paused",
      "outputs": [
        {
          "name": "",
          "type": "bool"
        }
      ],
      "payable": false,
      "stateMutability": "view",
      "type": "function"
    },
    {
      "constant": true,
      "inputs": [
        {
          "name": "_tokenId",
          "type": "uint256"
        }
      ],
      "name": "ownerOf",
      "outputs": [
        {
          "name": "",
          "type": "address"
        }
      ],
      "payable": false,
      "stateMutability": "view",
      "type": "function"
    },
    {
      "constant": true,
      "inputs": [
        {
          "name": "_owner",
          "type": "address"
        }
      ],
      "name": "balanceOf",
      "outputs": [
        {
          "name": "",
          "type": "uint256"
        }
      ],
      "payable": false,
      "stateMutability": "view",
      "type": "function"
    },
    {
      "constant": false,
      "inputs": [],
      "name": "renounceOwnership",
      "outputs": [],
      "payable": false,
      "stateMutability": "nonpayable",
      "type": "function"
    },
    {
      "constant": true,
      "inputs": [],
      "name": "totalDonationsCreated",
      "outputs": [
        {
          "name": "",
          "type": "uint256"
        }
      ],
      "payable": false,
      "stateMutability": "view",
      "type": "function"
    },
    {
      "constant": false,
      "inputs": [],
      "name": "pause",
      "outputs": [],
      "payable": false,
      "stateMutability": "nonpayable",
      "type": "function"
    },
    {
      "constant": true,
      "inputs": [],
      "name": "owner",
      "outputs": [
        {
          "name": "",
          "type": "address"
        }
      ],
      "payable": false,
      "stateMutability": "view",
      "type": "function"
    },
    {
      "constant": false,
      "inputs": [
        {
          "name": "_to",
          "type": "address"
        },
        {
          "name": "_approved",
          "type": "bool"
        }
      ],
      "name": "setApprovalForAll",
      "outputs": [],
      "payable": false,
      "stateMutability": "nonpayable",
      "type": "function"
    },
    {
      "constant": true,
      "inputs": [
        {
          "name": "",
          "type": "uint256"
        }
      ],
      "name": "donationClaimable",
      "outputs": [
        {
          "name": "",
          "type": "bool"
        }
      ],
      "payable": false,
      "stateMutability": "view",
      "type": "function"
    },
    {
      "constant": true,
      "inputs": [
        {
          "name": "",
          "type": "uint256"
        }
      ],
      "name": "donationRaised",
      "outputs": [
        {
          "name": "",
          "type": "uint256"
        }
      ],
      "payable": false,
      "stateMutability": "view",
      "type": "function"
    },
    {
      "constant": true,
      "inputs": [],
      "name": "totalDonationsIssued",
      "outputs": [
        {
          "name": "",
          "type": "uint256"
        }
      ],
      "payable": false,
      "stateMutability": "view",
      "type": "function"
    },
    {
      "constant": false,
      "inputs": [
        {
          "name": "_from",
          "type": "address"
        },
        {
          "name": "_to",
          "type": "address"
        },
        {
          "name": "_tokenId",
          "type": "uint256"
        },
        {
          "name": "_data",
          "type": "bytes"
        }
      ],
      "name": "safeTransferFrom",
      "outputs": [],
      "payable": false,
      "stateMutability": "nonpayable",
      "type": "function"
    },
    {
      "constant": true,
      "inputs": [
        {
          "name": "",
          "type": "uint256"
        }
      ],
      "name": "donationDescription",
      "outputs": [
        {
          "name": "",
          "type": "string"
        }
      ],
      "payable": false,
      "stateMutability": "view",
      "type": "function"
    },
    {
      "constant": true,
      "inputs": [
        {
          "name": "",
          "type": "uint256"
        }
      ],
      "name": "donationTaxId",
      "outputs": [
        {
          "name": "",
          "type": "string"
        }
      ],
      "payable": false,
      "stateMutability": "view",
      "type": "function"
    },
    {
      "constant": false,
      "inputs": [
        {
          "name": "_daiContract",
          "type": "address"
        }
      ],
      "name": "changeDaiAddress",
      "outputs": [],
      "payable": false,
      "stateMutability": "nonpayable",
      "type": "function"
    },
    {
      "constant": true,
      "inputs": [
        {
          "name": "_owner",
          "type": "address"
        },
        {
          "name": "_operator",
          "type": "address"
        }
      ],
      "name": "isApprovedForAll",
      "outputs": [
        {
          "name": "",
          "type": "bool"
        }
      ],
      "payable": false,
      "stateMutability": "view",
      "type": "function"
    },
    {
      "constant": true,
      "inputs": [
        {
          "name": "",
          "type": "uint256"
        }
      ],
      "name": "donationBeneficiary",
      "outputs": [
        {
          "name": "",
          "type": "address"
        }
      ],
      "payable": false,
      "stateMutability": "view",
      "type": "function"
    },
    {
      "constant": false,
      "inputs": [
        {
          "name": "_newOwner",
          "type": "address"
        }
      ],
      "name": "transferOwnership",
      "outputs": [],
      "payable": false,
      "stateMutability": "nonpayable",
      "type": "function"
    },
    {
      "constant": true,
      "inputs": [],
      "name": "dai",
      "outputs": [
        {
          "name": "",
          "type": "address"
        }
      ],
      "payable": false,
      "stateMutability": "view",
      "type": "function"
    },
    {
      "constant": true,
      "inputs": [
        {
          "name": "",
          "type": "uint256"
        }
      ],
      "name": "donations",
      "outputs": [
        {
          "name": "donationId",
          "type": "uint128"
        },
        {
          "name": "amount",
          "type": "uint128"
        },
        {
          "name": "donor",
          "type": "address"
        }
      ],
      "payable": false,
      "stateMutability": "view",
      "type": "function"
    },
    {
      "constant": true,
      "inputs": [
        {
          "name": "",
          "type": "uint256"
        }
      ],
      "name": "isDai",
      "outputs": [
        {
          "name": "",
          "type": "bool"
        }
      ],
      "payable": false,
      "stateMutability": "view",
      "type": "function"
    },
    {
      "anonymous": false,
      "inputs": [
        {
          "indexed": false,
          "name": "description",
          "type": "string"
        },
        {
          "indexed": false,
          "name": "goal",
          "type": "uint256"
        },
        {
          "indexed": false,
          "name": "beneficiary",
          "type": "address"
        },
        {
          "indexed": false,
          "name": "taxId",
          "type": "string"
        },
        {
          "indexed": false,
          "name": "creator",
          "type": "address"
        },
        {
          "indexed": false,
          "name": "claimable",
          "type": "bool"
        }
      ],
      "name": "CreateFundraiser",
      "type": "event"
    },
    {
      "anonymous": false,
      "inputs": [
        {
          "indexed": false,
          "name": "donationId",
          "type": "uint256"
        },
        {
          "indexed": false,
          "name": "amount",
          "type": "uint256"
        },
        {
          "indexed": false,
          "name": "donor",
          "type": "address"
        },
        {
          "indexed": false,
          "name": "sender",
          "type": "address"
        }
      ],
      "name": "MakeDonation",
      "type": "event"
    },
    {
      "anonymous": false,
      "inputs": [
        {
          "indexed": false,
          "name": "donor",
          "type": "address"
        },
        {
          "indexed": false,
          "name": "donationId",
          "type": "uint256"
        }
      ],
      "name": "ClaimDonation",
      "type": "event"
    },
    {
      "anonymous": false,
      "inputs": [
        {
          "indexed": false,
          "name": "donationId",
          "type": "uint256"
        },
        {
          "indexed": false,
          "name": "amount",
          "type": "uint256"
        },
        {
          "indexed": false,
          "name": "donor",
          "type": "address"
        },
        {
          "indexed": false,
          "name": "issuer",
          "type": "address"
        }
      ],
      "name": "IssueDonation",
      "type": "event"
    },
    {
      "anonymous": false,
      "inputs": [
        {
          "indexed": false,
          "name": "donationId",
          "type": "uint256"
        }
      ],
      "name": "DeleteDonation",
      "type": "event"
    },
    {
      "anonymous": false,
      "inputs": [
        {
          "indexed": false,
          "name": "newAddress",
          "type": "address"
        }
      ],
      "name": "ChangeDAIAddress",
      "type": "event"
    },
    {
      "anonymous": false,
      "inputs": [],
      "name": "Pause",
      "type": "event"
    },
    {
      "anonymous": false,
      "inputs": [],
      "name": "Unpause",
      "type": "event"
    },
    {
      "anonymous": false,
      "inputs": [
        {
          "indexed": true,
          "name": "previousOwner",
          "type": "address"
        }
      ],
      "name": "OwnershipRenounced",
      "type": "event"
    },
    {
      "anonymous": false,
      "inputs": [
        {
          "indexed": true,
          "name": "previousOwner",
          "type": "address"
        },
        {
          "indexed": true,
          "name": "newOwner",
          "type": "address"
        }
      ],
      "name": "OwnershipTransferred",
      "type": "event"
    },
    {
      "anonymous": false,
      "inputs": [
        {
          "indexed": true,
          "name": "_from",
          "type": "address"
        },
        {
          "indexed": true,
          "name": "_to",
          "type": "address"
        },
        {
          "indexed": true,
          "name": "_tokenId",
          "type": "uint256"
        }
      ],
      "name": "Transfer",
      "type": "event"
    },
    {
      "anonymous": false,
      "inputs": [
        {
          "indexed": true,
          "name": "_owner",
          "type": "address"
        },
        {
          "indexed": true,
          "name": "_approved",
          "type": "address"
        },
        {
          "indexed": true,
          "name": "_tokenId",
          "type": "uint256"
        }
      ],
      "name": "Approval",
      "type": "event"
    },
    {
      "anonymous": false,
      "inputs": [
        {
          "indexed": true,
          "name": "_owner",
          "type": "address"
        },
        {
          "indexed": true,
          "name": "_operator",
          "type": "address"
        },
        {
          "indexed": false,
          "name": "_approved",
          "type": "bool"
        }
      ],
      "name": "ApprovalForAll",
      "type": "event"
    },
    {
      "constant": true,
      "inputs": [
        {
          "name": "_id",
          "type": "uint256"
        }
      ],
      "name": "getDonation",
      "outputs": [
        {
          "name": "_originalDonationId",
          "type": "uint256"
        },
        {
          "name": "_donationId",
          "type": "uint256"
        },
        {
          "name": "_description",
          "type": "string"
        },
        {
          "name": "_goal",
          "type": "uint256"
        },
        {
          "name": "_raised",
          "type": "uint256"
        },
        {
          "name": "_amount",
          "type": "uint256"
        },
        {
          "name": "_beneficiary",
          "type": "address"
        },
        {
          "name": "_donor",
          "type": "address"
        },
        {
          "name": "_taxId",
          "type": "string"
        },
        {
          "name": "_claimable",
          "type": "bool"
        }
      ],
      "payable": false,
      "stateMutability": "view",
      "type": "function"
    }
  ],
  "bytecode": "0x60806040526005805460a060020a60ff0219169055620000487f01ffc9a700000000000000000000000000000000000000000000000000000000640100000000620000fc810204565b6200007c7f80ac58cd00000000000000000000000000000000000000000000000000000000640100000000620000fc810204565b620000b07f4f558e7900000000000000000000000000000000000000000000000000000000640100000000620000fc810204565b60058054600160a060020a031916331790553415620000ce57600080fd5b620000f67389d24a6b4ccb1b6faa2625fe562bdd9a2326035964010000000062000169810204565b620001fe565b7fffffffff0000000000000000000000000000000000000000000000000000000080821614156200012c57600080fd5b7fffffffff00000000000000000000000000000000000000000000000000000000166000908152602081905260409020805460ff19166001179055565b600554600160a060020a031633146200018157600080fd5b60055474010000000000000000000000000000000000000000900460ff1615620001aa57600080fd5b60068054600160a060020a038316600160a060020a0319909116811790915560408051918252517f4fdce19f4b0cbd1527f06f55399a35098c9f02f5b98e8a5f5490315377331ec99181900360200190a150565b611540806200020e6000396000f3006080604052600436106101955763ffffffff7c010000000000000000000000000000000000000000000000000000000060003504166301e93bfd811461019a57806301ffc9a7146101c1578063081812fc146101f7578063095ea7b31461022b57806319fa8f501461025157806323b872dd146102835780633aeb0b0e146102ad5780633f4ba83a146102c557806342842e0e146102da5780634f558e79146103045780635c975abb1461031c5780636352211e1461033157806370a0823114610349578063715018a61461036a578063834cb5f71461037f5780638456cb59146103945780638da5cb5b146103a9578063a22cb465146103be578063ac222787146103e4578063af70dfa5146103fc578063b741113814610414578063b88d4fde14610429578063bba598a014610498578063ca926f1b14610525578063d3547adc1461053d578063e985e9c51461055e578063ef07a81f14610585578063f29505fd146106db578063f2fde38b146106f3578063f4b9fa7514610714578063f8626af814610729578063f967d2e61461077d575b600080fd5b3480156101a657600080fd5b506101af610795565b60408051918252519081900360200190f35b3480156101cd57600080fd5b506101e3600160e060020a03196004351661079b565b604080519115158252519081900360200190f35b34801561020357600080fd5b5061020f6004356107ba565b60408051600160a060020a039092168252519081900360200190f35b34801561023757600080fd5b5061024f600160a060020a03600435166024356107d5565b005b34801561025d57600080fd5b5061026661087e565b60408051600160e060020a03199092168252519081900360200190f35b34801561028f57600080fd5b5061024f600160a060020a03600435811690602435166044356108a2565b3480156102b957600080fd5b506101af600435610947565b3480156102d157600080fd5b5061024f610959565b3480156102e657600080fd5b5061024f600160a060020a03600435811690602435166044356109d1565b34801561031057600080fd5b506101e3600435610a09565b34801561032857600080fd5b506101e3610a26565b34801561033d57600080fd5b5061020f600435610a36565b34801561035557600080fd5b506101af600160a060020a0360043516610a60565b34801561037657600080fd5b5061024f610a93565b34801561038b57600080fd5b506101af610af4565b3480156103a057600080fd5b5061024f610afa565b3480156103b557600080fd5b5061020f610b77565b3480156103ca57600080fd5b5061024f600160a060020a03600435166024351515610b86565b3480156103f057600080fd5b506101e3600435610c0a565b34801561040857600080fd5b506101af600435610c1f565b34801561042057600080fd5b506101af610c31565b34801561043557600080fd5b50604080516020601f60643560048181013592830184900484028501840190955281845261024f94600160a060020a038135811695602480359092169560443595369560849401918190840183828082843750949750610c379650505050505050565b3480156104a457600080fd5b506104b0600435610c76565b6040805160208082528351818301528351919283929083019185019080838360005b838110156104ea5781810151838201526020016104d2565b50505050905090810190601f1680156105175780820380516001836020036101000a031916815260200191505b509250505060405180910390f35b34801561053157600080fd5b506104b0600435610d11565b34801561054957600080fd5b5061024f600160a060020a0360043516610d79565b34801561056a57600080fd5b506101e3600160a060020a0360043581169060243516610dfb565b34801561059157600080fd5b5061059d600435610e29565b604051808b81526020018a81526020018060200189815260200188815260200187815260200186600160a060020a0316600160a060020a0316815260200185600160a060020a0316600160a060020a03168152602001806020018415151515815260200183810383528b818151815260200191508051906020019080838360005b8381101561063657818101518382015260200161061e565b50505050905090810190601f1680156106635780820380516001836020036101000a031916815260200191505b50838103825285518152855160209182019187019080838360005b8381101561069657818101518382015260200161067e565b50505050905090810190601f1680156106c35780820380516001836020036101000a031916815260200191505b509c5050505050505050505050505060405180910390f35b3480156106e757600080fd5b5061020f60043561107d565b3480156106ff57600080fd5b5061024f600160a060020a0360043516611098565b34801561072057600080fd5b5061020f6110bb565b34801561073557600080fd5b506107416004356110ca565b604080516fffffffffffffffffffffffffffffffff9485168152929093166020830152600160a060020a03168183015290519081900360600190f35b34801561078957600080fd5b506101e360043561112b565b600b5481565b600160e060020a03191660009081526020819052604090205460ff1690565b600090815260026020526040902054600160a060020a031690565b60006107e082610a36565b9050600160a060020a0383811690821614156107fb57600080fd5b33600160a060020a038216148061081757506108178133610dfb565b151561082257600080fd5b6000828152600260205260408082208054600160a060020a031916600160a060020a0387811691821790925591518593918516917f8c5be1e5ebec7d5bd14f71427d1e84f3dd0314c0f7b2291e5b200ac8c7c3b92591a4505050565b7f01ffc9a70000000000000000000000000000000000000000000000000000000081565b806108ad3382611140565b15156108b857600080fd5b600160a060020a03841615156108cd57600080fd5b600160a060020a03831615156108e257600080fd5b6108ec848361119f565b6108f68483611203565b610900838361128c565b8183600160a060020a031685600160a060020a03167fddf252ad1be2c89b69c2b068fc378daa952ba7f163c4a11628f55a4df523b3ef60405160405180910390a450505050565b60106020526000908152604090205481565b600554600160a060020a0316331461097057600080fd5b60055460a060020a900460ff16151561098857600080fd5b6005805474ff0000000000000000000000000000000000000000191690556040517f7805862f689e2f13df9f062ff482ad3ad112aca9e0847911ed832e158c525b3390600090a1565b806109dc3382611140565b15156109e757600080fd5b610a038484846020604051908101604052806000815250610c37565b50505050565b600090815260016020526040902054600160a060020a0316151590565b60055460a060020a900460ff1681565b600081815260016020526040812054600160a060020a0316801515610a5a57600080fd5b92915050565b6000600160a060020a0382161515610a7757600080fd5b50600160a060020a031660009081526003602052604090205490565b600554600160a060020a03163314610aaa57600080fd5b600554604051600160a060020a03909116907ff8df31144d9c2f0f6b59d69b8b98abd5459d07f2742c4df920b25aae33c6482090600090a260058054600160a060020a0319169055565b600a5481565b600554600160a060020a03163314610b1157600080fd5b60055460a060020a900460ff1615610b2857600080fd5b6005805474ff0000000000000000000000000000000000000000191660a060020a1790556040517f6985a02210a168e66602d3235cb6db0e70f92b3ba4d376a33c0f3d9434bff62590600090a1565b600554600160a060020a031681565b600160a060020a038216331415610b9c57600080fd5b336000818152600460209081526040808320600160a060020a03871680855290835292819020805460ff1916861515908117909155815190815290519293927f17307eab39ab6107e8899845ad3d59bd9653f200f220920489ca2b5937696c31929181900390910190a35050565b60126020526000908152604090205460ff1681565b60116020526000908152604090205481565b600c5481565b81610c423382611140565b1515610c4d57600080fd5b610c588585856108a2565b610c648585858561130f565b1515610c6f57600080fd5b5050505050565b600d6020908152600091825260409182902080548351601f600260001961010060018616150201909316929092049182018490048402810184019094528084529091830182828015610d095780601f10610cde57610100808354040283529160200191610d09565b820191906000526020600020905b815481529060010190602001808311610cec57829003601f168201915b505050505081565b600e6020908152600091825260409182902080548351601f600260001961010060018616150201909316929092049182018490048402810184019094528084529091830182828015610d095780601f10610cde57610100808354040283529160200191610d09565b600554600160a060020a03163314610d9057600080fd5b60055460a060020a900460ff1615610da757600080fd5b60068054600160a060020a038316600160a060020a0319909116811790915560408051918252517f4fdce19f4b0cbd1527f06f55399a35098c9f02f5b98e8a5f5490315377331ec99181900360200190a150565b600160a060020a03918216600090815260046020908152604080832093909416825291909152205460ff1690565b60008060606000806000806000606060008060098c815481101515610e4a57fe5b60009182526020808320600292830201546fffffffffffffffffffffffffffffffff16808452600d8252604093849020805485516101006001831615026000190190911694909404601f8101849004840285018401909552848452909e508f9d508e9450919290830182828015610f025780601f10610ed757610100808354040283529160200191610f02565b820191906000526020600020905b815481529060010190602001808311610ee557829003601f168201915b50505060008481526010602090815260408083205460119092529091205460098054959e50919c509a50928f925082109050610f3a57fe5b6000918252602080832060029290920290910154838352600f909152604090912054600980547001000000000000000000000000000000009093046fffffffffffffffffffffffffffffffff169850600160a060020a039091169650908d908110610fa157fe5b60009182526020808320600292830201600190810154858552600e8352604094859020805486516101009482161594909402600019011694909404601f8101849004840283018401909552848252600160a060020a03169750929083018282801561104d5780601f106110225761010080835404028352916020019161104d565b820191906000526020600020905b81548152906001019060200180831161103057829003601f168201915b50505060009e8f52505060126020526040909c20549a9c999b989a979996989597949693959460ff169392505050565b600f60205260009081526040902054600160a060020a031681565b600554600160a060020a031633146110af57600080fd5b6110b88161147c565b50565b600654600160a060020a031681565b60098054829081106110d857fe5b6000918252602090912060029091020180546001909101546fffffffffffffffffffffffffffffffff808316935070010000000000000000000000000000000090920490911690600160a060020a031683565b60076020526000908152604090205460ff1681565b60008061114c83610a36565b905080600160a060020a031684600160a060020a03161480611187575083600160a060020a031661117c846107ba565b600160a060020a0316145b8061119757506111978185610dfb565b949350505050565b81600160a060020a03166111b282610a36565b600160a060020a0316146111c557600080fd5b600081815260026020526040902054600160a060020a0316156111ff5760008181526002602052604090208054600160a060020a03191690555b5050565b81600160a060020a031661121682610a36565b600160a060020a03161461122957600080fd5b600160a060020a03821660009081526003602052604090205461125390600163ffffffff6114ed16565b600160a060020a039092166000908152600360209081526040808320949094559181526001909152208054600160a060020a0319169055565b600081815260016020526040902054600160a060020a0316156112ae57600080fd5b60008181526001602081815260408084208054600160a060020a031916600160a060020a03881690811790915584526003909152909120546112ef916114ff565b600160a060020a0390921660009081526003602052604090209190915550565b60008061132485600160a060020a031661150c565b15156113335760019150611473565b6040517f150b7a020000000000000000000000000000000000000000000000000000000081523360048201818152600160a060020a03898116602485015260448401889052608060648501908152875160848601528751918a169463150b7a0294938c938b938b93909160a490910190602085019080838360005b838110156113c65781810151838201526020016113ae565b50505050905090810190601f1680156113f35780820380516001836020036101000a031916815260200191505b5095505050505050602060405180830381600087803b15801561141557600080fd5b505af1158015611429573d6000803e3d6000fd5b505050506040513d602081101561143f57600080fd5b5051600160e060020a031981167f150b7a020000000000000000000000000000000000000000000000000000000014925090505b50949350505050565b600160a060020a038116151561149157600080fd5b600554604051600160a060020a038084169216907f8be0079c531659141344cd1fd0a4f28419497f9722a3daafe3b4186f6b6457e090600090a360058054600160a060020a031916600160a060020a0392909216919091179055565b6000828211156114f957fe5b50900390565b81810182811015610a5a57fe5b6000903b11905600a165627a7a72305820b2035a7217bad6f3c9727df483cadb763fcba59ab625f6360439b959cc0cd3700029",
  "source": "pragma solidity 0.4.24;\n\nimport \"zeppelin-solidity/contracts/token/ERC721/ERC721BasicToken.sol\";\nimport \"./DaiDonation.sol\";\n\n\ncontract DonationCore is ERC721BasicToken, DaiDonation {\n  // Soft cap of 4,294,967,295 (2^32-1)\n  // E.g. Fill every block for ~50 years\n  Donation[] public donations;\n\n  // Tracking variables\n  uint256 public totalDonationsCreated;\n  uint256 public totalDonationsMade;\n  uint256 public totalDonationsIssued;\n\n  // Donation data mapping\n  mapping (uint256 => string) public donationDescription;\n  mapping (uint256 => string) public donationTaxId;\n  mapping (uint256 => address) public donationBeneficiary;\n  mapping (uint256 => uint256) public donationGoal;\n  mapping (uint256 => uint256) public donationRaised;\n  mapping (uint256 => bool) public donationClaimable;\n\n  // Event logging\n  event CreateFundraiser(string description, uint256 goal, address beneficiary, string taxId, address creator, bool claimable);\n  event MakeDonation(uint256 donationId, uint256 amount, address donor, address sender);\n  event ClaimDonation(address donor, uint256 donationId);\n  event IssueDonation(uint256 donationId, uint256 amount, address donor, address issuer);\n  event DeleteDonation(uint256 donationId);\n\n  // Donation struct\n  struct Donation {\n    uint128 donationId;  // 4 bytes\n    uint128 amount;     // 16 bytes\n    address donor;      // 20 bytes\n  }\n\n  // Returns the donation information\n  function getDonation(uint256 _id) external view\n    returns (\n      uint256 _originalDonationId,\n      uint256 _donationId,\n      string _description,\n      uint256 _goal,\n      uint256 _raised,\n      uint256 _amount,\n      address _beneficiary,\n      address _donor,\n      string _taxId,\n      bool _claimable\n      ) {\n        uint256 origId = donations[_id].donationId;\n\n        _originalDonationId = origId;\n        _donationId = _id;\n        _description = donationDescription[origId];\n        _goal = donationGoal[origId];\n        _raised = donationRaised[origId];\n        _amount = donations[_id].amount;\n        _beneficiary = donationBeneficiary[origId];\n        _donor = donations[_id].donor;\n        _taxId = donationTaxId[origId];\n        _claimable = donationClaimable[_id];\n  }\n\n  function _createDAIFundraiser(\n    string _description,\n    uint256 _goal,\n    address _beneficiary,\n    string _taxId,\n    bool _claimable\n  ) internal\n    returns (uint256)\n  {\n    uint256 newDonationId = _createFundraiser(_description, _goal, _beneficiary, _taxId, _claimable);\n    _trackDaiDonation(newDonationId);\n    return newDonationId;\n  }\n\n  function _createFundraiser(\n    string _description,\n    uint256 _goal,\n    address _beneficiary,\n    string _taxId,\n    bool _claimable\n  )\n    internal\n    returns (uint256)\n  {\n    Donation memory _donation = Donation({\n      donationId: uint32(donations.length),\n      amount: 0,\n      donor: address(0)\n    });\n\n    uint256 newDonationId = donations.push(_donation) - 1;\n    _mint(msg.sender, newDonationId);\n\n    donationDescription[newDonationId] = _description;\n    donationBeneficiary[newDonationId] = _beneficiary;\n    donationGoal[newDonationId] = _goal;\n    donationTaxId[newDonationId] = _taxId;\n    donationClaimable[newDonationId] = _claimable;\n\n    totalDonationsCreated++;\n\n    emit CreateFundraiser(_description, _goal, _beneficiary, _taxId, msg.sender, _claimable);\n    return newDonationId;\n  }\n\n  function _makeDonation(uint256 _donationId, uint256 _amount, address _donor, bool mintToken)\n    internal\n    returns (uint256)\n  {\n    Donation memory _donation;\n    // If the donation is marked as claimable, a future owner\n    // may assign their address later.\n    if (donationClaimable[_donationId]) {\n       _donation = Donation({\n        donationId: uint32(_donationId),\n        amount: uint128(_amount),\n        donor: address(0)\n      });\n    } else {\n      _donation = Donation({\n        donationId: uint32(_donationId),\n        amount: uint128(_amount),\n        donor: _donor\n      });\n    }\n\n    uint256 newDonationId = donations.push(_donation) - 1;\n\n    // Mark the new donation id claimable by the owner\n    if (donationClaimable[_donationId]) {\n      donationClaimable[newDonationId] = true;\n    }\n\n    // Minting an ERC-721 asset is optional\n    if (mintToken) {\n      _mint(_donor, newDonationId);\n      totalDonationsMade++;\n      emit MakeDonation(newDonationId, _amount, _donor, msg.sender);\n    } else {\n      totalDonationsIssued++;\n      emit IssueDonation(_donationId, _amount, _donor, msg.sender);\n    }\n\n    return newDonationId;\n  }\n\n  function _claimDonation(address _donor, uint256 _donationId)\n    internal\n  {\n    require(donationClaimable[_donationId] == true);\n    require(donations[_donationId].donor == address(0));\n\n    donations[_donationId].donor = _donor;\n\n    donationClaimable[_donationId] = false;\n    emit ClaimDonation(_donor, _donationId);\n  }\n\n  function _deleteDonation(uint256 _donationId)\n    internal\n  {\n    delete donations[_donationId];\n    donationDescription[_donationId] = \"\";\n    donationTaxId[_donationId] = \"\";\n    donationBeneficiary[_donationId] = address(0);\n    donationGoal[_donationId] = 0;\n    donationRaised[_donationId] = 0;\n\n    _burn(ownerOf(_donationId), _donationId);\n\n    emit DeleteDonation(_donationId);\n  }\n}",
  "sourcePath": "/home/hayek/proj/Notary/contracts/DonationCore.sol",
  "compiler": {
    "name": "solc",
    "version": "0.4.24+commit.e67f0147.Emscripten.clang"
  },
  "schemaVersion": "2.0.1",
  "updatedAt": "2018-10-25T04:02:38.515Z"
}