{
  "contractName": "ERC721TokenMock",
  "abi": [
    {
      "constant": true,
      "inputs": [
        {
          "name": "_interfaceId",
          "type": "bytes4"
        }
      ],
      "name": "supportsInterface",
      "outputs": [
        {
          "name": "",
          "type": "bool"
        }
      ],
      "payable": false,
      "stateMutability": "view",
      "type": "function"
    },
    {
      "constant": true,
      "inputs": [
        {
          "name": "_tokenId",
          "type": "uint256"
        }
      ],
      "name": "getApproved",
      "outputs": [
        {
          "name": "",
          "type": "address"
        }
      ],
      "payable": false,
      "stateMutability": "view",
      "type": "function"
    },
    {
      "constant": false,
      "inputs": [
        {
          "name": "_to",
          "type": "address"
        },
        {
          "name": "_tokenId",
          "type": "uint256"
        }
      ],
      "name": "approve",
      "outputs": [],
      "payable": false,
      "stateMutability": "nonpayable",
      "type": "function"
    },
    {
      "constant": true,
      "inputs": [],
      "name": "InterfaceId_ERC165",
      "outputs": [
        {
          "name": "",
          "type": "bytes4"
        }
      ],
      "payable": false,
      "stateMutability": "view",
      "type": "function"
    },
    {
      "constant": false,
      "inputs": [
        {
          "name": "_from",
          "type": "address"
        },
        {
          "name": "_to",
          "type": "address"
        },
        {
          "name": "_tokenId",
          "type": "uint256"
        }
      ],
      "name": "transferFrom",
      "outputs": [],
      "payable": false,
      "stateMutability": "nonpayable",
      "type": "function"
    },
    {
      "constant": false,
      "inputs": [
        {
          "name": "_from",
          "type": "address"
        },
        {
          "name": "_to",
          "type": "address"
        },
        {
          "name": "_tokenId",
          "type": "uint256"
        }
      ],
      "name": "safeTransferFrom",
      "outputs": [],
      "payable": false,
      "stateMutability": "nonpayable",
      "type": "function"
    },
    {
      "constant": true,
      "inputs": [
        {
          "name": "_tokenId",
          "type": "uint256"
        }
      ],
      "name": "exists",
      "outputs": [
        {
          "name": "",
          "type": "bool"
        }
      ],
      "payable": false,
      "stateMutability": "view",
      "type": "function"
    },
    {
      "constant": true,
      "inputs": [
        {
          "name": "_tokenId",
          "type": "uint256"
        }
      ],
      "name": "ownerOf",
      "outputs": [
        {
          "name": "",
          "type": "address"
        }
      ],
      "payable": false,
      "stateMutability": "view",
      "type": "function"
    },
    {
      "constant": true,
      "inputs": [
        {
          "name": "_owner",
          "type": "address"
        }
      ],
      "name": "balanceOf",
      "outputs": [
        {
          "name": "",
          "type": "uint256"
        }
      ],
      "payable": false,
      "stateMutability": "view",
      "type": "function"
    },
    {
      "constant": false,
      "inputs": [
        {
          "name": "_to",
          "type": "address"
        },
        {
          "name": "_approved",
          "type": "bool"
        }
      ],
      "name": "setApprovalForAll",
      "outputs": [],
      "payable": false,
      "stateMutability": "nonpayable",
      "type": "function"
    },
    {
      "constant": false,
      "inputs": [
        {
          "name": "_from",
          "type": "address"
        },
        {
          "name": "_to",
          "type": "address"
        },
        {
          "name": "_tokenId",
          "type": "uint256"
        },
        {
          "name": "_data",
          "type": "bytes"
        }
      ],
      "name": "safeTransferFrom",
      "outputs": [],
      "payable": false,
      "stateMutability": "nonpayable",
      "type": "function"
    },
    {
      "constant": true,
      "inputs": [
        {
          "name": "_owner",
          "type": "address"
        },
        {
          "name": "_operator",
          "type": "address"
        }
      ],
      "name": "isApprovedForAll",
      "outputs": [
        {
          "name": "",
          "type": "bool"
        }
      ],
      "payable": false,
      "stateMutability": "view",
      "type": "function"
    },
    {
      "inputs": [],
      "payable": false,
      "stateMutability": "nonpayable",
      "type": "constructor"
    },
    {
      "anonymous": false,
      "inputs": [
        {
          "indexed": true,
          "name": "_from",
          "type": "address"
        },
        {
          "indexed": true,
          "name": "_to",
          "type": "address"
        },
        {
          "indexed": true,
          "name": "_tokenId",
          "type": "uint256"
        }
      ],
      "name": "Transfer",
      "type": "event"
    },
    {
      "anonymous": false,
      "inputs": [
        {
          "indexed": true,
          "name": "_owner",
          "type": "address"
        },
        {
          "indexed": true,
          "name": "_approved",
          "type": "address"
        },
        {
          "indexed": true,
          "name": "_tokenId",
          "type": "uint256"
        }
      ],
      "name": "Approval",
      "type": "event"
    },
    {
      "anonymous": false,
      "inputs": [
        {
          "indexed": true,
          "name": "_owner",
          "type": "address"
        },
        {
          "indexed": true,
          "name": "_operator",
          "type": "address"
        },
        {
          "indexed": false,
          "name": "_approved",
          "type": "bool"
        }
      ],
      "name": "ApprovalForAll",
      "type": "event"
    },
    {
      "constant": false,
      "inputs": [
        {
          "name": "_to",
          "type": "address"
        },
        {
          "name": "_tokenId",
          "type": "uint256"
        }
      ],
      "name": "mint",
      "outputs": [],
      "payable": false,
      "stateMutability": "nonpayable",
      "type": "function"
    },
    {
      "constant": false,
      "inputs": [
        {
          "name": "_owner",
          "type": "address"
        },
        {
          "name": "_tokenId",
          "type": "uint256"
        }
      ],
      "name": "burn",
      "outputs": [],
      "payable": false,
      "stateMutability": "nonpayable",
      "type": "function"
    }
  ],
  "bytecode": "0x608060405234801561001057600080fd5b506100437f01ffc9a7000000000000000000000000000000000000000000000000000000006401000000006100ac810204565b6100757f80ac58cd000000000000000000000000000000000000000000000000000000006401000000006100ac810204565b6100a77f4f558e79000000000000000000000000000000000000000000000000000000006401000000006100ac810204565b610118565b7fffffffff0000000000000000000000000000000000000000000000000000000080821614156100db57600080fd5b7fffffffff00000000000000000000000000000000000000000000000000000000166000908152602081905260409020805460ff19166001179055565b610b24806101276000396000f3006080604052600436106100cf5763ffffffff7c010000000000000000000000000000000000000000000000000000000060003504166301ffc9a781146100d4578063081812fc1461010a578063095ea7b31461013e57806319fa8f501461016457806323b872dd1461019657806340c10f19146101c057806342842e0e146101e45780634f558e791461020e5780636352211e1461022657806370a082311461023e5780639dc29fac14610271578063a22cb46514610295578063b88d4fde146102bb578063e985e9c51461032a575b600080fd5b3480156100e057600080fd5b506100f6600160e060020a031960043516610351565b604080519115158252519081900360200190f35b34801561011657600080fd5b50610122600435610370565b60408051600160a060020a039092168252519081900360200190f35b34801561014a57600080fd5b50610162600160a060020a036004351660243561038b565b005b34801561017057600080fd5b50610179610441565b60408051600160e060020a03199092168252519081900360200190f35b3480156101a257600080fd5b50610162600160a060020a0360043581169060243516604435610465565b3480156101cc57600080fd5b50610162600160a060020a036004351660243561050a565b3480156101f057600080fd5b50610162600160a060020a0360043581169060243516604435610518565b34801561021a57600080fd5b506100f6600435610550565b34801561023257600080fd5b5061012260043561056d565b34801561024a57600080fd5b5061025f600160a060020a0360043516610597565b60408051918252519081900360200190f35b34801561027d57600080fd5b50610162600160a060020a03600435166024356105ca565b3480156102a157600080fd5b50610162600160a060020a036004351660243515156105d4565b3480156102c757600080fd5b50604080516020601f60643560048181013592830184900484028501840190955281845261016294600160a060020a0381358116956024803590921695604435953695608494019181908401838280828437509497506106589650505050505050565b34801561033657600080fd5b506100f6600160a060020a0360043581169060243516610697565b600160e060020a03191660009081526020819052604090205460ff1690565b600090815260026020526040902054600160a060020a031690565b60006103968261056d565b9050600160a060020a0383811690821614156103b157600080fd5b33600160a060020a03821614806103cd57506103cd8133610697565b15156103d857600080fd5b600082815260026020526040808220805473ffffffffffffffffffffffffffffffffffffffff1916600160a060020a0387811691821790925591518593918516917f8c5be1e5ebec7d5bd14f71427d1e84f3dd0314c0f7b2291e5b200ac8c7c3b92591a4505050565b7f01ffc9a70000000000000000000000000000000000000000000000000000000081565b8061047033826106c5565b151561047b57600080fd5b600160a060020a038416151561049057600080fd5b600160a060020a03831615156104a557600080fd5b6104af8483610724565b6104b98483610793565b6104c38383610829565b8183600160a060020a031685600160a060020a03167fddf252ad1be2c89b69c2b068fc378daa952ba7f163c4a11628f55a4df523b3ef60405160405180910390a450505050565b61051482826108b9565b5050565b8061052333826106c5565b151561052e57600080fd5b61054a8484846020604051908101604052806000815250610658565b50505050565b600090815260016020526040902054600160a060020a0316151590565b600081815260016020526040812054600160a060020a031680151561059157600080fd5b92915050565b6000600160a060020a03821615156105ae57600080fd5b50600160a060020a031660009081526003602052604090205490565b6105148282610914565b600160a060020a0382163314156105ea57600080fd5b336000818152600460209081526040808320600160a060020a03871680855290835292819020805460ff1916861515908117909155815190815290519293927f17307eab39ab6107e8899845ad3d59bd9653f200f220920489ca2b5937696c31929181900390910190a35050565b8161066333826106c5565b151561066e57600080fd5b610679858585610465565b61068585858585610964565b151561069057600080fd5b5050505050565b600160a060020a03918216600090815260046020908152604080832093909416825291909152205460ff1690565b6000806106d18361056d565b905080600160a060020a031684600160a060020a0316148061070c575083600160a060020a031661070184610370565b600160a060020a0316145b8061071c575061071c8185610697565b949350505050565b81600160a060020a03166107378261056d565b600160a060020a03161461074a57600080fd5b600081815260026020526040902054600160a060020a031615610514576000908152600260205260409020805473ffffffffffffffffffffffffffffffffffffffff1916905550565b81600160a060020a03166107a68261056d565b600160a060020a0316146107b957600080fd5b600160a060020a0382166000908152600360205260409020546107e390600163ffffffff610ad116565b600160a060020a03909216600090815260036020908152604080832094909455918152600190915220805473ffffffffffffffffffffffffffffffffffffffff19169055565b600081815260016020526040902054600160a060020a03161561084b57600080fd5b6000818152600160208181526040808420805473ffffffffffffffffffffffffffffffffffffffff1916600160a060020a038816908117909155845260039091529091205461089991610ae3565b600160a060020a0390921660009081526003602052604090209190915550565b600160a060020a03821615156108ce57600080fd5b6108d88282610829565b6040518190600160a060020a038416906000907fddf252ad1be2c89b69c2b068fc378daa952ba7f163c4a11628f55a4df523b3ef908290a45050565b61091e8282610724565b6109288282610793565b6040518190600090600160a060020a038516907fddf252ad1be2c89b69c2b068fc378daa952ba7f163c4a11628f55a4df523b3ef908390a45050565b60008061097985600160a060020a0316610af0565b15156109885760019150610ac8565b6040517f150b7a020000000000000000000000000000000000000000000000000000000081523360048201818152600160a060020a03898116602485015260448401889052608060648501908152875160848601528751918a169463150b7a0294938c938b938b93909160a490910190602085019080838360005b83811015610a1b578181015183820152602001610a03565b50505050905090810190601f168015610a485780820380516001836020036101000a031916815260200191505b5095505050505050602060405180830381600087803b158015610a6a57600080fd5b505af1158015610a7e573d6000803e3d6000fd5b505050506040513d6020811015610a9457600080fd5b5051600160e060020a031981167f150b7a020000000000000000000000000000000000000000000000000000000014925090505b50949350505050565b600082821115610add57fe5b50900390565b8181018281101561059157fe5b6000903b11905600a165627a7a7230582009e674618d7addff51167f906259a36eb14c51e5a91f06bcf10140ad21f7efeb0029",
  "source": "pragma solidity 0.4.24;\n\nimport \"zeppelin-solidity/contracts/token/ERC721/ERC721BasicToken.sol\";\n\n\n/**\n * @title ERC721TokenMock\n * This mock just provides public mint and burn functions for testing purposes.\n */\ncontract ERC721TokenMock is ERC721BasicToken {\n  constructor() public { }\n\n  function mint(address _to, uint256 _tokenId) public {\n    super._mint(_to, _tokenId);\n  }\n\n  function burn(address _owner, uint256 _tokenId) public {\n    super._burn(_owner, _tokenId);\n  }\n}",
  "sourcePath": "/home/hayek/proj/Notary/contracts/mocks/ERC721.mock.sol",
  "compiler": {
    "name": "solc",
    "version": "0.4.24+commit.e67f0147.Emscripten.clang"
  },
  "schemaVersion": "2.0.1",
  "updatedAt": "2018-10-25T04:02:38.522Z"
}