{
  "contractName": "Managed",
  "abi": [
    {
      "constant": false,
      "inputs": [],
      "name": "unpause",
      "outputs": [],
      "payable": false,
      "stateMutability": "nonpayable",
      "type": "function"
    },
    {
      "constant": true,
      "inputs": [],
      "name": "paused",
      "outputs": [
        {
          "name": "",
          "type": "bool"
        }
      ],
      "payable": false,
      "stateMutability": "view",
      "type": "function"
    },
    {
      "constant": false,
      "inputs": [],
      "name": "renounceOwnership",
      "outputs": [],
      "payable": false,
      "stateMutability": "nonpayable",
      "type": "function"
    },
    {
      "constant": false,
      "inputs": [],
      "name": "pause",
      "outputs": [],
      "payable": false,
      "stateMutability": "nonpayable",
      "type": "function"
    },
    {
      "constant": true,
      "inputs": [],
      "name": "owner",
      "outputs": [
        {
          "name": "",
          "type": "address"
        }
      ],
      "payable": false,
      "stateMutability": "view",
      "type": "function"
    },
    {
      "constant": false,
      "inputs": [
        {
          "name": "_newOwner",
          "type": "address"
        }
      ],
      "name": "transferOwnership",
      "outputs": [],
      "payable": false,
      "stateMutability": "nonpayable",
      "type": "function"
    },
    {
      "inputs": [],
      "payable": true,
      "stateMutability": "payable",
      "type": "constructor"
    },
    {
      "anonymous": false,
      "inputs": [
        {
          "indexed": false,
          "name": "manager",
          "type": "address"
        }
      ],
      "name": "AddManager",
      "type": "event"
    },
    {
      "anonymous": false,
      "inputs": [
        {
          "indexed": false,
          "name": "manager",
          "type": "address"
        }
      ],
      "name": "RemoveManager",
      "type": "event"
    },
    {
      "anonymous": false,
      "inputs": [],
      "name": "Pause",
      "type": "event"
    },
    {
      "anonymous": false,
      "inputs": [],
      "name": "Unpause",
      "type": "event"
    },
    {
      "anonymous": false,
      "inputs": [
        {
          "indexed": true,
          "name": "previousOwner",
          "type": "address"
        }
      ],
      "name": "OwnershipRenounced",
      "type": "event"
    },
    {
      "anonymous": false,
      "inputs": [
        {
          "indexed": true,
          "name": "previousOwner",
          "type": "address"
        },
        {
          "indexed": true,
          "name": "newOwner",
          "type": "address"
        }
      ],
      "name": "OwnershipTransferred",
      "type": "event"
    },
    {
      "constant": false,
      "inputs": [
        {
          "name": "_manager",
          "type": "address"
        }
      ],
      "name": "addManager",
      "outputs": [],
      "payable": false,
      "stateMutability": "nonpayable",
      "type": "function"
    },
    {
      "constant": false,
      "inputs": [
        {
          "name": "_manager",
          "type": "address"
        }
      ],
      "name": "removeManager",
      "outputs": [],
      "payable": false,
      "stateMutability": "nonpayable",
      "type": "function"
    },
    {
      "constant": true,
      "inputs": [
        {
          "name": "_manager",
          "type": "address"
        }
      ],
      "name": "isManager",
      "outputs": [
        {
          "name": "",
          "type": "bool"
        }
      ],
      "payable": false,
      "stateMutability": "view",
      "type": "function"
    }
  ],
  "bytecode": "0x608060405260008054600160a860020a03191633179055341561002157600080fd5b336000908152600160208190526040909120805460ff191690911790556105328061004d6000396000f3006080604052600436106100985763ffffffff7c01000000000000000000000000000000000000000000000000000000006000350416632d06177a811461009d5780633f4ba83a146100c05780635c975abb146100d5578063715018a6146100fe5780638456cb59146101135780638da5cb5b14610128578063ac18de4314610159578063f2fde38b1461017a578063f3ae24151461019b575b600080fd5b3480156100a957600080fd5b506100be600160a060020a03600435166101bc565b005b3480156100cc57600080fd5b506100be610246565b3480156100e157600080fd5b506100ea6102bc565b604080519115158252519081900360200190f35b34801561010a57600080fd5b506100be6102cc565b34801561011f57600080fd5b506100be610338565b34801561013457600080fd5b5061013d6103b3565b60408051600160a060020a039092168252519081900360200190f35b34801561016557600080fd5b506100be600160a060020a03600435166103c2565b34801561018657600080fd5b506100be600160a060020a0360043516610448565b3480156101a757600080fd5b506100ea600160a060020a036004351661046b565b60005460a060020a900460ff16156101d357600080fd5b600054600160a060020a031633146101ea57600080fd5b600160a060020a038116600081815260016020818152604092839020805460ff1916909217909155815192835290517f3630096a7f9a158ab9fae41e86bfe31fd2202585a26a9668242672566dae028d9281900390910190a150565b600054600160a060020a0316331461025d57600080fd5b60005460a060020a900460ff16151561027557600080fd5b6000805474ff0000000000000000000000000000000000000000191681556040517f7805862f689e2f13df9f062ff482ad3ad112aca9e0847911ed832e158c525b339190a1565b60005460a060020a900460ff1681565b600054600160a060020a031633146102e357600080fd5b60008054604051600160a060020a03909116917ff8df31144d9c2f0f6b59d69b8b98abd5459d07f2742c4df920b25aae33c6482091a26000805473ffffffffffffffffffffffffffffffffffffffff19169055565b600054600160a060020a0316331461034f57600080fd5b60005460a060020a900460ff161561036657600080fd5b6000805474ff0000000000000000000000000000000000000000191660a060020a1781556040517f6985a02210a168e66602d3235cb6db0e70f92b3ba4d376a33c0f3d9434bff6259190a1565b600054600160a060020a031681565b60005460a060020a900460ff16156103d957600080fd5b600054600160a060020a031633146103f057600080fd5b600160a060020a038116600081815260016020908152604091829020805460ff19169055815192835290517f1e25ed4cabec84d314dc176241019653f237da01f2bdd3a10cb0f38b33da67639281900390910190a150565b600054600160a060020a0316331461045f57600080fd5b61046881610489565b50565b600160a060020a031660009081526001602052604090205460ff1690565b600160a060020a038116151561049e57600080fd5b60008054604051600160a060020a03808516939216917f8be0079c531659141344cd1fd0a4f28419497f9722a3daafe3b4186f6b6457e091a36000805473ffffffffffffffffffffffffffffffffffffffff1916600160a060020a03929092169190911790555600a165627a7a72305820bc3a0550b7c4b153381b6c0cb278b28dbf42ffa802de5bdc8d593c99d166f71f0029",
  "source": "pragma solidity 0.4.24;\n\nimport \"zeppelin-solidity/contracts/ownership/Ownable.sol\";\nimport \"zeppelin-solidity/contracts/lifecycle/Pausable.sol\";\n\n\ncontract Managed is Ownable, Pausable {\n\n  mapping(address => bool) private managers;\n\n  event AddManager(address manager);\n  event RemoveManager(address manager);\n\n  modifier onlyManagers() {\n    require(managers[msg.sender]);\n    _;\n  }\n\n  constructor() public payable {\n    require(msg.value == 0);\n\n    managers[msg.sender] = true;\n  }\n\n  function addManager(address _manager) public whenNotPaused onlyOwner {\n    managers[_manager] = true;\n    emit AddManager(_manager);\n  }\n\n  function removeManager(address _manager) public whenNotPaused onlyOwner {\n    managers[_manager] = false;\n    emit RemoveManager(_manager);\n  }\n\n  function isManager(address _manager) public view returns (bool) {\n    return managers[_manager];\n  }\n}",
  "sourcePath": "/home/hayek/proj/Notary/contracts/Managed.sol",
  "compiler": {
    "name": "solc",
    "version": "0.4.24+commit.e67f0147.Emscripten.clang"
  },
  "schemaVersion": "2.0.1",
  "updatedAt": "2018-10-25T04:02:38.521Z"
}