{
  "contractName": "ManagedMock",
  "abi": [
    {
      "constant": false,
      "inputs": [
        {
          "name": "_manager",
          "type": "address"
        }
      ],
      "name": "addManager",
      "outputs": [],
      "payable": false,
      "stateMutability": "nonpayable",
      "type": "function"
    },
    {
      "constant": false,
      "inputs": [],
      "name": "unpause",
      "outputs": [],
      "payable": false,
      "stateMutability": "nonpayable",
      "type": "function"
    },
    {
      "constant": true,
      "inputs": [],
      "name": "paused",
      "outputs": [
        {
          "name": "",
          "type": "bool"
        }
      ],
      "payable": false,
      "stateMutability": "view",
      "type": "function"
    },
    {
      "constant": false,
      "inputs": [],
      "name": "renounceOwnership",
      "outputs": [],
      "payable": false,
      "stateMutability": "nonpayable",
      "type": "function"
    },
    {
      "constant": false,
      "inputs": [],
      "name": "pause",
      "outputs": [],
      "payable": false,
      "stateMutability": "nonpayable",
      "type": "function"
    },
    {
      "constant": true,
      "inputs": [],
      "name": "owner",
      "outputs": [
        {
          "name": "",
          "type": "address"
        }
      ],
      "payable": false,
      "stateMutability": "view",
      "type": "function"
    },
    {
      "constant": false,
      "inputs": [
        {
          "name": "_manager",
          "type": "address"
        }
      ],
      "name": "removeManager",
      "outputs": [],
      "payable": false,
      "stateMutability": "nonpayable",
      "type": "function"
    },
    {
      "constant": false,
      "inputs": [
        {
          "name": "_newOwner",
          "type": "address"
        }
      ],
      "name": "transferOwnership",
      "outputs": [],
      "payable": false,
      "stateMutability": "nonpayable",
      "type": "function"
    },
    {
      "constant": true,
      "inputs": [
        {
          "name": "_manager",
          "type": "address"
        }
      ],
      "name": "isManager",
      "outputs": [
        {
          "name": "",
          "type": "bool"
        }
      ],
      "payable": false,
      "stateMutability": "view",
      "type": "function"
    },
    {
      "inputs": [],
      "payable": false,
      "stateMutability": "nonpayable",
      "type": "constructor"
    },
    {
      "anonymous": false,
      "inputs": [
        {
          "indexed": false,
          "name": "manager",
          "type": "address"
        }
      ],
      "name": "AddManager",
      "type": "event"
    },
    {
      "anonymous": false,
      "inputs": [
        {
          "indexed": false,
          "name": "manager",
          "type": "address"
        }
      ],
      "name": "RemoveManager",
      "type": "event"
    },
    {
      "anonymous": false,
      "inputs": [],
      "name": "Pause",
      "type": "event"
    },
    {
      "anonymous": false,
      "inputs": [],
      "name": "Unpause",
      "type": "event"
    },
    {
      "anonymous": false,
      "inputs": [
        {
          "indexed": true,
          "name": "previousOwner",
          "type": "address"
        }
      ],
      "name": "OwnershipRenounced",
      "type": "event"
    },
    {
      "anonymous": false,
      "inputs": [
        {
          "indexed": true,
          "name": "previousOwner",
          "type": "address"
        },
        {
          "indexed": true,
          "name": "newOwner",
          "type": "address"
        }
      ],
      "name": "OwnershipTransferred",
      "type": "event"
    },
    {
      "constant": false,
      "inputs": [],
      "name": "managersOnly",
      "outputs": [
        {
          "name": "",
          "type": "bool"
        }
      ],
      "payable": false,
      "stateMutability": "nonpayable",
      "type": "function"
    }
  ],
  "bytecode": "0x60806040526000805460a060020a60ff021916905534801561002057600080fd5b5060008054600160a060020a03191633179055341561003e57600080fd5b336000908152600160208190526040909120805460ff191690911790556105768061006a6000396000f3006080604052600436106100a35763ffffffff7c01000000000000000000000000000000000000000000000000000000006000350416632d06177a81146100a85780633f4ba83a146100cb5780635c975abb146100e0578063715018a6146101095780638456cb591461011e5780638da5cb5b14610133578063ac18de4314610164578063f178ff4214610185578063f2fde38b1461019a578063f3ae2415146101bb575b600080fd5b3480156100b457600080fd5b506100c9600160a060020a03600435166101dc565b005b3480156100d757600080fd5b506100c9610266565b3480156100ec57600080fd5b506100f56102dc565b604080519115158252519081900360200190f35b34801561011557600080fd5b506100c96102ec565b34801561012a57600080fd5b506100c9610358565b34801561013f57600080fd5b506101486103d3565b60408051600160a060020a039092168252519081900360200190f35b34801561017057600080fd5b506100c9600160a060020a03600435166103e2565b34801561019157600080fd5b506100f5610468565b3480156101a657600080fd5b506100c9600160a060020a036004351661048c565b3480156101c757600080fd5b506100f5600160a060020a03600435166104af565b60005460a060020a900460ff16156101f357600080fd5b600054600160a060020a0316331461020a57600080fd5b600160a060020a038116600081815260016020818152604092839020805460ff1916909217909155815192835290517f3630096a7f9a158ab9fae41e86bfe31fd2202585a26a9668242672566dae028d9281900390910190a150565b600054600160a060020a0316331461027d57600080fd5b60005460a060020a900460ff16151561029557600080fd5b6000805474ff0000000000000000000000000000000000000000191681556040517f7805862f689e2f13df9f062ff482ad3ad112aca9e0847911ed832e158c525b339190a1565b60005460a060020a900460ff1681565b600054600160a060020a0316331461030357600080fd5b60008054604051600160a060020a03909116917ff8df31144d9c2f0f6b59d69b8b98abd5459d07f2742c4df920b25aae33c6482091a26000805473ffffffffffffffffffffffffffffffffffffffff19169055565b600054600160a060020a0316331461036f57600080fd5b60005460a060020a900460ff161561038657600080fd5b6000805474ff0000000000000000000000000000000000000000191660a060020a1781556040517f6985a02210a168e66602d3235cb6db0e70f92b3ba4d376a33c0f3d9434bff6259190a1565b600054600160a060020a031681565b60005460a060020a900460ff16156103f957600080fd5b600054600160a060020a0316331461041057600080fd5b600160a060020a038116600081815260016020908152604091829020805460ff19169055815192835290517f1e25ed4cabec84d314dc176241019653f237da01f2bdd3a10cb0f38b33da67639281900390910190a150565b3360009081526001602052604081205460ff16151561048657600080fd5b50600190565b600054600160a060020a031633146104a357600080fd5b6104ac816104cd565b50565b600160a060020a031660009081526001602052604090205460ff1690565b600160a060020a03811615156104e257600080fd5b60008054604051600160a060020a03808516939216917f8be0079c531659141344cd1fd0a4f28419497f9722a3daafe3b4186f6b6457e091a36000805473ffffffffffffffffffffffffffffffffffffffff1916600160a060020a03929092169190911790555600a165627a7a723058207400aa447450b9e1e10e713cbbc6492eb7b26449845e004bded5e3847ef659ec0029",
  "source": "pragma solidity 0.4.24;\n\nimport \"../Managed.sol\";\n\ncontract ManagedMock is Managed {\n  constructor() public { }\n\n  function managersOnly()\n    onlyManagers\n    public\n    returns (bool)\n    {\n      return true;\n    }\n}",
  "sourcePath": "/home/hayek/proj/Notary/contracts/mocks/Managed-mock.sol",
  "compiler": {
    "name": "solc",
    "version": "0.4.24+commit.e67f0147.Emscripten.clang"
  },
  "schemaVersion": "2.0.1",
  "updatedAt": "2018-10-25T04:02:38.522Z"
}