{
  "contractName": "Asset",
  "abi": [
    {
      "constant": false,
      "inputs": [
        {
          "name": "_to",
          "type": "address"
        },
        {
          "name": "_tokenId",
          "type": "uint256"
        }
      ],
      "name": "approve",
      "outputs": [],
      "payable": false,
      "stateMutability": "nonpayable",
      "type": "function"
    },
    {
      "constant": true,
      "inputs": [],
      "name": "totalSupply",
      "outputs": [
        {
          "name": "",
          "type": "uint256"
        }
      ],
      "payable": false,
      "stateMutability": "view",
      "type": "function"
    },
    {
      "constant": true,
      "inputs": [
        {
          "name": "_tokenId",
          "type": "uint256"
        }
      ],
      "name": "approvedFor",
      "outputs": [
        {
          "name": "",
          "type": "address"
        }
      ],
      "payable": false,
      "stateMutability": "view",
      "type": "function"
    },
    {
      "constant": true,
      "inputs": [
        {
          "name": "_owner",
          "type": "address"
        }
      ],
      "name": "tokensOf",
      "outputs": [
        {
          "name": "",
          "type": "uint256[]"
        }
      ],
      "payable": false,
      "stateMutability": "view",
      "type": "function"
    },
    {
      "constant": true,
      "inputs": [
        {
          "name": "_tokenId",
          "type": "uint256"
        }
      ],
      "name": "ownerOf",
      "outputs": [
        {
          "name": "",
          "type": "address"
        }
      ],
      "payable": false,
      "stateMutability": "view",
      "type": "function"
    },
    {
      "constant": true,
      "inputs": [
        {
          "name": "_owner",
          "type": "address"
        }
      ],
      "name": "balanceOf",
      "outputs": [
        {
          "name": "",
          "type": "uint256"
        }
      ],
      "payable": false,
      "stateMutability": "view",
      "type": "function"
    },
    {
      "constant": false,
      "inputs": [
        {
          "name": "_to",
          "type": "address"
        },
        {
          "name": "_tokenId",
          "type": "uint256"
        }
      ],
      "name": "transfer",
      "outputs": [],
      "payable": false,
      "stateMutability": "nonpayable",
      "type": "function"
    },
    {
      "constant": false,
      "inputs": [
        {
          "name": "_tokenId",
          "type": "uint256"
        }
      ],
      "name": "takeOwnership",
      "outputs": [],
      "payable": false,
      "stateMutability": "nonpayable",
      "type": "function"
    },
    {
      "anonymous": false,
      "inputs": [
        {
          "indexed": true,
          "name": "_from",
          "type": "address"
        },
        {
          "indexed": true,
          "name": "_to",
          "type": "address"
        },
        {
          "indexed": false,
          "name": "_tokenId",
          "type": "uint256"
        }
      ],
      "name": "Transfer",
      "type": "event"
    },
    {
      "anonymous": false,
      "inputs": [
        {
          "indexed": true,
          "name": "_owner",
          "type": "address"
        },
        {
          "indexed": true,
          "name": "_approved",
          "type": "address"
        },
        {
          "indexed": false,
          "name": "_tokenId",
          "type": "uint256"
        }
      ],
      "name": "Approval",
      "type": "event"
    },
    {
      "constant": true,
      "inputs": [],
      "name": "name",
      "outputs": [
        {
          "name": "_name",
          "type": "string"
        }
      ],
      "payable": false,
      "stateMutability": "pure",
      "type": "function"
    },
    {
      "constant": true,
      "inputs": [],
      "name": "symbol",
      "outputs": [
        {
          "name": "_symbol",
          "type": "string"
        }
      ],
      "payable": false,
      "stateMutability": "pure",
      "type": "function"
    }
  ],
  "bytecode": "0x6060604052341561000f57600080fd5b610bc88061001e6000396000f3006060604052600436106100a35763ffffffff7c010000000000000000000000000000000000000000000000000000000060003504166306fdde0381146100a8578063095ea7b31461013257806318160ddd146101635780632a6dd48f146101885780635a3f2672146101c75780636352211e1461024657806370a082311461025c57806395d89b4114610288578063a9059cbb1461029b578063b2e6ceeb146102ca575b600080fd5b34156100b357600080fd5b6100bb6102e0565b60405160208082528190810183818151815260200191508051906020019080838360005b838110156100f75780820151838201526020016100df565b50505050905090810190601f1680156101245780820380516001836020036101000a031916815260200191505b509250505060405180910390f35b341561013d57600080fd5b61016173ffffffffffffffffffffffffffffffffffffffff60043516602435610321565b005b341561016e57600080fd5b610176610461565b60405190815260200160405180910390f35b341561019357600080fd5b61019e600435610468565b60405173ffffffffffffffffffffffffffffffffffffffff909116815260200160405180910390f35b34156101d257600080fd5b6101f373ffffffffffffffffffffffffffffffffffffffff60043516610490565b60405160208082528190810183818151815260200191508051906020019060200280838360005b8381101561023257808201518382015260200161021a565b505050509050019250505060405180910390f35b341561025157600080fd5b61019e60043561052d565b341561026757600080fd5b61017673ffffffffffffffffffffffffffffffffffffffff60043516610564565b341561029357600080fd5b6100bb61058c565b34156102a657600080fd5b61016173ffffffffffffffffffffffffffffffffffffffff600435166024356105cd565b34156102d557600080fd5b61016160043561061e565b6102e8610b4d565b60408051908101604052600881527f48657269746167650000000000000000000000000000000000000000000000006020820152919050565b6000813373ffffffffffffffffffffffffffffffffffffffff166103448261052d565b73ffffffffffffffffffffffffffffffffffffffff161461036457600080fd5b61036d8361052d565b915073ffffffffffffffffffffffffffffffffffffffff848116908316141561039557600080fd5b61039e83610468565b73ffffffffffffffffffffffffffffffffffffffff161515806103d6575073ffffffffffffffffffffffffffffffffffffffff841615155b1561045b5760008381526002602052604090819020805473ffffffffffffffffffffffffffffffffffffffff191673ffffffffffffffffffffffffffffffffffffffff87811691821790925591908416907f8c5be1e5ebec7d5bd14f71427d1e84f3dd0314c0f7b2291e5b200ac8c7c3b9259086905190815260200160405180910390a35b50505050565b6000545b90565b60009081526002602052604090205473ffffffffffffffffffffffffffffffffffffffff1690565b610498610b4d565b600360008373ffffffffffffffffffffffffffffffffffffffff1673ffffffffffffffffffffffffffffffffffffffff16815260200190815260200160002080548060200260200160405190810160405280929190818152602001828054801561052157602002820191906000526020600020905b81548152602001906001019080831161050d575b50505050509050919050565b60008181526001602052604081205473ffffffffffffffffffffffffffffffffffffffff1680151561055e57600080fd5b92915050565b73ffffffffffffffffffffffffffffffffffffffff1660009081526003602052604090205490565b610594610b4d565b60408051908101604052600381527f415e3300000000000000000000000000000000000000000000000000000000006020820152919050565b803373ffffffffffffffffffffffffffffffffffffffff166105ee8261052d565b73ffffffffffffffffffffffffffffffffffffffff161461060e57600080fd5b610619338484610649565b505050565b610628338261075d565b151561063357600080fd5b61064661063f8261052d565b3383610649565b50565b73ffffffffffffffffffffffffffffffffffffffff8216151561066b57600080fd5b6106748161052d565b73ffffffffffffffffffffffffffffffffffffffff8381169116141561069957600080fd5b8273ffffffffffffffffffffffffffffffffffffffff166106b98261052d565b73ffffffffffffffffffffffffffffffffffffffff16146106d957600080fd5b6106e3838261079d565b6106ed8382610856565b6106f78282610a39565b8173ffffffffffffffffffffffffffffffffffffffff168373ffffffffffffffffffffffffffffffffffffffff167fddf252ad1be2c89b69c2b068fc378daa952ba7f163c4a11628f55a4df523b3ef8360405190815260200160405180910390a3505050565b60008273ffffffffffffffffffffffffffffffffffffffff1661077f83610468565b73ffffffffffffffffffffffffffffffffffffffff16149392505050565b8173ffffffffffffffffffffffffffffffffffffffff166107bd8261052d565b73ffffffffffffffffffffffffffffffffffffffff16146107dd57600080fd5b600081815260026020526040808220805473ffffffffffffffffffffffffffffffffffffffff1916905573ffffffffffffffffffffffffffffffffffffffff8416907f8c5be1e5ebec7d5bd14f71427d1e84f3dd0314c0f7b2291e5b200ac8c7c3b9259084905190815260200160405180910390a35050565b60008060008473ffffffffffffffffffffffffffffffffffffffff1661087b8561052d565b73ffffffffffffffffffffffffffffffffffffffff161461089b57600080fd5b60008481526004602052604090205492506108c660016108ba87610564565b9063ffffffff610b2516565b73ffffffffffffffffffffffffffffffffffffffff86166000908152600360205260409020805491935090839081106108fb57fe5b6000918252602080832090910154868352600182526040808420805473ffffffffffffffffffffffffffffffffffffffff1916905573ffffffffffffffffffffffffffffffffffffffff8916845260039092529120805491925082918590811061096157fe5b600091825260208083209091019290925573ffffffffffffffffffffffffffffffffffffffff871681526003909152604081208054849081106109a057fe5b600091825260208083209091019290925573ffffffffffffffffffffffffffffffffffffffff87168152600390915260409020805490610a02907fffffffffffffffffffffffffffffffffffffffffffffffffffffffffffffffff8301610b5f565b50600084815260046020526040808220829055828252812084905554610a2f90600163ffffffff610b2516565b6000555050505050565b60008181526001602052604081205473ffffffffffffffffffffffffffffffffffffffff1615610a6857600080fd5b6000828152600160205260409020805473ffffffffffffffffffffffffffffffffffffffff191673ffffffffffffffffffffffffffffffffffffffff8516179055610ab283610564565b73ffffffffffffffffffffffffffffffffffffffff8416600090815260036020526040902080549192509060018101610aeb8382610b5f565b506000918252602080832091909101849055838252600490526040812082905554610b1d90600163ffffffff610b3716565b600055505050565b600082821115610b3157fe5b50900390565b600082820183811015610b4657fe5b9392505050565b60206040519081016040526000815290565b8154818355818115116106195760008381526020902061061991810190830161046591905b80821115610b985760008155600101610b84565b50905600a165627a7a72305820433c47611bf29b375d46f8e8b341f25168c514fe474263c6d6b8dd538dc7ecbe0029",
  "source": "pragma solidity ^0.4.19;\n\nimport 'zeppelin-solidity/contracts/token/ERC721/ERC721Token.sol';\n\ncontract Asset is ERC721Token {\n  function name() external pure returns (string _name) {\n    _name = \"Heritage\";\n  }\n\n  function symbol() external pure returns (string _symbol) {\n    _symbol = \"A^3\";\n  }\n}",
  "sourcePath": "/home/hayek/proj/Notary/contracts/Asset.sol",
  "compiler": {
    "name": "solc",
    "version": "0.4.21+commit.dfe3193c.Emscripten.clang"
  },
  "schemaVersion": "2.0.0",
  "updatedAt": "2018-06-22T08:06:28.488Z"
}