{
  "contractName": "Notarizer",
  "abi": [
    {
      "constant": true,
      "inputs": [],
      "name": "name",
      "outputs": [
        {
          "name": "_name",
          "type": "string"
        }
      ],
      "payable": false,
      "stateMutability": "pure",
      "type": "function"
    },
    {
      "constant": false,
      "inputs": [
        {
          "name": "_to",
          "type": "address"
        },
        {
          "name": "_tokenId",
          "type": "uint256"
        }
      ],
      "name": "approve",
      "outputs": [],
      "payable": false,
      "stateMutability": "nonpayable",
      "type": "function"
    },
    {
      "constant": true,
      "inputs": [],
      "name": "totalSupply",
      "outputs": [
        {
          "name": "",
          "type": "uint256"
        }
      ],
      "payable": false,
      "stateMutability": "view",
      "type": "function"
    },
    {
      "constant": true,
      "inputs": [
        {
          "name": "_tokenId",
          "type": "uint256"
        }
      ],
      "name": "approvedFor",
      "outputs": [
        {
          "name": "",
          "type": "address"
        }
      ],
      "payable": false,
      "stateMutability": "view",
      "type": "function"
    },
    {
      "constant": true,
      "inputs": [
        {
          "name": "",
          "type": "uint256"
        }
      ],
      "name": "tokens",
      "outputs": [
        {
          "name": "campaignName",
          "type": "string"
        },
        {
          "name": "value",
          "type": "uint256"
        },
        {
          "name": "purchaser",
          "type": "string"
        },
        {
          "name": "message",
          "type": "string"
        }
      ],
      "payable": false,
      "stateMutability": "view",
      "type": "function"
    },
    {
      "constant": true,
      "inputs": [
        {
          "name": "_owner",
          "type": "address"
        }
      ],
      "name": "tokensOf",
      "outputs": [
        {
          "name": "",
          "type": "uint256[]"
        }
      ],
      "payable": false,
      "stateMutability": "view",
      "type": "function"
    },
    {
      "constant": true,
      "inputs": [
        {
          "name": "_tokenId",
          "type": "uint256"
        }
      ],
      "name": "ownerOf",
      "outputs": [
        {
          "name": "",
          "type": "address"
        }
      ],
      "payable": false,
      "stateMutability": "view",
      "type": "function"
    },
    {
      "constant": true,
      "inputs": [
        {
          "name": "_owner",
          "type": "address"
        }
      ],
      "name": "balanceOf",
      "outputs": [
        {
          "name": "",
          "type": "uint256"
        }
      ],
      "payable": false,
      "stateMutability": "view",
      "type": "function"
    },
    {
      "constant": true,
      "inputs": [],
      "name": "totalTokens",
      "outputs": [
        {
          "name": "",
          "type": "uint256"
        }
      ],
      "payable": false,
      "stateMutability": "view",
      "type": "function"
    },
    {
      "constant": true,
      "inputs": [],
      "name": "owner",
      "outputs": [
        {
          "name": "",
          "type": "address"
        }
      ],
      "payable": false,
      "stateMutability": "view",
      "type": "function"
    },
    {
      "constant": true,
      "inputs": [],
      "name": "symbol",
      "outputs": [
        {
          "name": "_symbol",
          "type": "string"
        }
      ],
      "payable": false,
      "stateMutability": "pure",
      "type": "function"
    },
    {
      "constant": false,
      "inputs": [
        {
          "name": "_to",
          "type": "address"
        },
        {
          "name": "_tokenId",
          "type": "uint256"
        }
      ],
      "name": "transfer",
      "outputs": [],
      "payable": false,
      "stateMutability": "nonpayable",
      "type": "function"
    },
    {
      "constant": false,
      "inputs": [
        {
          "name": "_tokenId",
          "type": "uint256"
        }
      ],
      "name": "takeOwnership",
      "outputs": [],
      "payable": false,
      "stateMutability": "nonpayable",
      "type": "function"
    },
    {
      "constant": false,
      "inputs": [
        {
          "name": "newOwner",
          "type": "address"
        }
      ],
      "name": "transferOwnership",
      "outputs": [],
      "payable": false,
      "stateMutability": "nonpayable",
      "type": "function"
    },
    {
      "anonymous": false,
      "inputs": [
        {
          "indexed": true,
          "name": "previousOwner",
          "type": "address"
        },
        {
          "indexed": true,
          "name": "newOwner",
          "type": "address"
        }
      ],
      "name": "OwnershipTransferred",
      "type": "event"
    },
    {
      "anonymous": false,
      "inputs": [
        {
          "indexed": true,
          "name": "_from",
          "type": "address"
        },
        {
          "indexed": true,
          "name": "_to",
          "type": "address"
        },
        {
          "indexed": false,
          "name": "_tokenId",
          "type": "uint256"
        }
      ],
      "name": "Transfer",
      "type": "event"
    },
    {
      "anonymous": false,
      "inputs": [
        {
          "indexed": true,
          "name": "_owner",
          "type": "address"
        },
        {
          "indexed": true,
          "name": "_approved",
          "type": "address"
        },
        {
          "indexed": false,
          "name": "_tokenId",
          "type": "uint256"
        }
      ],
      "name": "Approval",
      "type": "event"
    },
    {
      "constant": false,
      "inputs": [
        {
          "name": "_campaignName",
          "type": "string"
        },
        {
          "name": "_value",
          "type": "uint256"
        },
        {
          "name": "_purchaser",
          "type": "string"
        },
        {
          "name": "_message",
          "type": "string"
        }
      ],
      "name": "issue",
      "outputs": [
        {
          "name": "",
          "type": "uint256"
        }
      ],
      "payable": false,
      "stateMutability": "nonpayable",
      "type": "function"
    }
  ],
  "bytecode": "0x606060405260058054600160a060020a03191633600160a060020a031617905561146e8061002e6000396000f3006060604052600436106100da5763ffffffff7c010000000000000000000000000000000000000000000000000000000060003504166306fdde0381146100df578063095ea7b31461016957806318160ddd1461019a5780632a6dd48f146101bf5780634f64b2be146101fe5780635a3f2672146103655780636352211e146103e45780636781ec66146103fa57806370a08231146104d85780637e1c0c09146105045780638da5cb5b1461051757806395d89b411461052a578063a9059cbb1461053d578063b2e6ceeb1461056c578063f2fde38b14610582575b600080fd5b34156100ea57600080fd5b6100f26105ae565b60405160208082528190810183818151815260200191508051906020019080838360005b8381101561012e578082015183820152602001610116565b50505050905090810190601f16801561015b5780820380516001836020036101000a031916815260200191505b509250505060405180910390f35b341561017457600080fd5b61019873ffffffffffffffffffffffffffffffffffffffff600435166024356105ef565b005b34156101a557600080fd5b6101ad61072f565b60405190815260200160405180910390f35b34156101ca57600080fd5b6101d5600435610736565b60405173ffffffffffffffffffffffffffffffffffffffff909116815260200160405180910390f35b341561020957600080fd5b61021460043561075e565b60405180806020018581526020018060200180602001848103845288818151815260200191508051906020019080838360005b8381101561025f578082015183820152602001610247565b50505050905090810190601f16801561028c5780820380516001836020036101000a031916815260200191505b50848103835286818151815260200191508051906020019080838360005b838110156102c25780820151838201526020016102aa565b50505050905090810190601f1680156102ef5780820380516001836020036101000a031916815260200191505b50848103825285818151815260200191508051906020019080838360005b8381101561032557808201518382015260200161030d565b50505050905090810190601f1680156103525780820380516001836020036101000a031916815260200191505b5097505050505050505060405180910390f35b341561037057600080fd5b61039173ffffffffffffffffffffffffffffffffffffffff60043516610964565b60405160208082528190810183818151815260200191508051906020019060200280838360005b838110156103d05780820151838201526020016103b8565b505050509050019250505060405180910390f35b34156103ef57600080fd5b6101d5600435610a01565b341561040557600080fd5b6101ad60046024813581810190830135806020601f8201819004810201604051908101604052818152929190602084018383808284378201915050505050509190803590602001909190803590602001908201803590602001908080601f01602080910402602001604051908101604052818152929190602084018383808284378201915050505050509190803590602001908201803590602001908080601f016020809104026020016040519081016040528181529291906020840183838082843750949650610a3895505050505050565b34156104e357600080fd5b6101ad73ffffffffffffffffffffffffffffffffffffffff60043516610b2b565b341561050f57600080fd5b6101ad610b53565b341561052257600080fd5b6101d5610b59565b341561053557600080fd5b6100f2610b75565b341561054857600080fd5b61019873ffffffffffffffffffffffffffffffffffffffff60043516602435610bb6565b341561057757600080fd5b610198600435610c07565b341561058d57600080fd5b61019873ffffffffffffffffffffffffffffffffffffffff60043516610c32565b6105b6611281565b60408051908101604052600881527f48657269746167650000000000000000000000000000000000000000000000006020820152919050565b6000813373ffffffffffffffffffffffffffffffffffffffff1661061282610a01565b73ffffffffffffffffffffffffffffffffffffffff161461063257600080fd5b61063b83610a01565b915073ffffffffffffffffffffffffffffffffffffffff848116908316141561066357600080fd5b61066c83610736565b73ffffffffffffffffffffffffffffffffffffffff161515806106a4575073ffffffffffffffffffffffffffffffffffffffff841615155b156107295760008381526002602052604090819020805473ffffffffffffffffffffffffffffffffffffffff191673ffffffffffffffffffffffffffffffffffffffff87811691821790925591908416907f8c5be1e5ebec7d5bd14f71427d1e84f3dd0314c0f7b2291e5b200ac8c7c3b9259086905190815260200160405180910390a35b50505050565b6000545b90565b60009081526002602052604090205473ffffffffffffffffffffffffffffffffffffffff1690565b600680548290811061076c57fe5b9060005260206000209060040201600091509050806000018054600181600116156101000203166002900480601f0160208091040260200160405190810160405280929190818152602001828054600181600116156101000203166002900480156108185780601f106107ed57610100808354040283529160200191610818565b820191906000526020600020905b8154815290600101906020018083116107fb57829003601f168201915b505050505090806001015490806002018054600181600116156101000203166002900480601f0160208091040260200160405190810160405280929190818152602001828054600181600116156101000203166002900480156108bc5780601f10610891576101008083540402835291602001916108bc565b820191906000526020600020905b81548152906001019060200180831161089f57829003601f168201915b505050505090806003018054600181600116156101000203166002900480601f01602080910402602001604051908101604052809291908181526020018280546001816001161561010002031660029004801561095a5780601f1061092f5761010080835404028352916020019161095a565b820191906000526020600020905b81548152906001019060200180831161093d57829003601f168201915b5050505050905084565b61096c611281565b600360008373ffffffffffffffffffffffffffffffffffffffff1673ffffffffffffffffffffffffffffffffffffffff1681526020019081526020016000208054806020026020016040519081016040528092919081815260200182805480156109f557602002820191906000526020600020905b8154815260200190600101908083116109e1575b50505050509050919050565b60008181526001602052604081205473ffffffffffffffffffffffffffffffffffffffff16801515610a3257600080fd5b92915050565b6000610a42611293565b6005546000903373ffffffffffffffffffffffffffffffffffffffff908116911614610a6d57600080fd5b60806040519081016040528088815260200187815260200186815260200185815250915060068054806001018281610aa591906112cd565b60009283526020909220849160040201815181908051610ac99291602001906112f9565b5060208201518160010155604082015181600201908051610aee9291602001906112f9565b50606082015181600301908051610b099291602001906112f9565b5050509050610b183382610d01565b6007805460010190559695505050505050565b73ffffffffffffffffffffffffffffffffffffffff1660009081526003602052604090205490565b60075481565b60055473ffffffffffffffffffffffffffffffffffffffff1681565b610b7d611281565b60408051908101604052600381527f415e3300000000000000000000000000000000000000000000000000000000006020820152919050565b803373ffffffffffffffffffffffffffffffffffffffff16610bd782610a01565b73ffffffffffffffffffffffffffffffffffffffff1614610bf757600080fd5b610c02338484610d7d565b505050565b610c113382610e91565b1515610c1c57600080fd5b610c2f610c2882610a01565b3383610d7d565b50565b6005543373ffffffffffffffffffffffffffffffffffffffff908116911614610c5a57600080fd5b73ffffffffffffffffffffffffffffffffffffffff81161515610c7c57600080fd5b60055473ffffffffffffffffffffffffffffffffffffffff80831691167f8be0079c531659141344cd1fd0a4f28419497f9722a3daafe3b4186f6b6457e060405160405180910390a36005805473ffffffffffffffffffffffffffffffffffffffff191673ffffffffffffffffffffffffffffffffffffffff92909216919091179055565b73ffffffffffffffffffffffffffffffffffffffff82161515610d2357600080fd5b610d2d8282610ed1565b8173ffffffffffffffffffffffffffffffffffffffff1660007fddf252ad1be2c89b69c2b068fc378daa952ba7f163c4a11628f55a4df523b3ef8360405190815260200160405180910390a35050565b73ffffffffffffffffffffffffffffffffffffffff82161515610d9f57600080fd5b610da881610a01565b73ffffffffffffffffffffffffffffffffffffffff83811691161415610dcd57600080fd5b8273ffffffffffffffffffffffffffffffffffffffff16610ded82610a01565b73ffffffffffffffffffffffffffffffffffffffff1614610e0d57600080fd5b610e178382610fbd565b610e218382611076565b610e2b8282610ed1565b8173ffffffffffffffffffffffffffffffffffffffff168373ffffffffffffffffffffffffffffffffffffffff167fddf252ad1be2c89b69c2b068fc378daa952ba7f163c4a11628f55a4df523b3ef8360405190815260200160405180910390a3505050565b60008273ffffffffffffffffffffffffffffffffffffffff16610eb383610736565b73ffffffffffffffffffffffffffffffffffffffff16149392505050565b60008181526001602052604081205473ffffffffffffffffffffffffffffffffffffffff1615610f0057600080fd5b6000828152600160205260409020805473ffffffffffffffffffffffffffffffffffffffff191673ffffffffffffffffffffffffffffffffffffffff8516179055610f4a83610b2b565b73ffffffffffffffffffffffffffffffffffffffff8416600090815260036020526040902080549192509060018101610f838382611377565b506000918252602080832091909101849055838252600490526040812082905554610fb590600163ffffffff61125916565b600055505050565b8173ffffffffffffffffffffffffffffffffffffffff16610fdd82610a01565b73ffffffffffffffffffffffffffffffffffffffff1614610ffd57600080fd5b600081815260026020526040808220805473ffffffffffffffffffffffffffffffffffffffff1916905573ffffffffffffffffffffffffffffffffffffffff8416907f8c5be1e5ebec7d5bd14f71427d1e84f3dd0314c0f7b2291e5b200ac8c7c3b9259084905190815260200160405180910390a35050565b60008060008473ffffffffffffffffffffffffffffffffffffffff1661109b85610a01565b73ffffffffffffffffffffffffffffffffffffffff16146110bb57600080fd5b60008481526004602052604090205492506110e660016110da87610b2b565b9063ffffffff61126f16565b73ffffffffffffffffffffffffffffffffffffffff861660009081526003602052604090208054919350908390811061111b57fe5b6000918252602080832090910154868352600182526040808420805473ffffffffffffffffffffffffffffffffffffffff1916905573ffffffffffffffffffffffffffffffffffffffff8916845260039092529120805491925082918590811061118157fe5b600091825260208083209091019290925573ffffffffffffffffffffffffffffffffffffffff871681526003909152604081208054849081106111c057fe5b600091825260208083209091019290925573ffffffffffffffffffffffffffffffffffffffff87168152600390915260409020805490611222907fffffffffffffffffffffffffffffffffffffffffffffffffffffffffffffffff8301611377565b5060008481526004602052604080822082905582825281208490555461124f90600163ffffffff61126f16565b6000555050505050565b60008282018381101561126857fe5b9392505050565b60008282111561127b57fe5b50900390565b60206040519081016040526000815290565b6080604051908101604052806112a7611281565b8152602001600081526020016112bb611281565b81526020016112c8611281565b905290565b815481835581811511610c0257600402816004028360005260206000209182019101610c02919061139b565b828054600181600116156101000203166002900490600052602060002090601f016020900481019282601f1061133a57805160ff1916838001178555611367565b82800160010185558215611367579182015b8281111561136757825182559160200191906001019061134c565b506113739291506113e4565b5090565b815481835581811511610c0257600083815260209020610c029181019083016113e4565b61073391905b808211156113735760006113b582826113fe565b60018201600090556002820160006113cd91906113fe565b6113db6003830160006113fe565b506004016113a1565b61073391905b8082111561137357600081556001016113ea565b50805460018160011615610100020316600290046000825580601f106114245750610c2f565b601f016020900490600052602060002090810190610c2f91906113e45600a165627a7a72305820db0ac7f89b34f3f045396ef80bbb48f11c9b5a49020a6ed9a6be47193eeadc030029",
  "source": "pragma solidity ^0.4.19;\n\nimport './Asset.sol';\nimport 'zeppelin-solidity/contracts/ownership/Ownable.sol';\n\ncontract Notarizer is Asset, Ownable {\n\nToken[] public tokens;\nuint256 public totalTokens;\n\nstruct Token {\n    string campaignName;\n    uint256 value;\n    string purchaser;\n    string message;\n  }\n\n  function issue(\n    string _campaignName,\n    uint256 _value,\n    string _purchaser,\n    string _message\n  )\n    onlyOwner\n    returns (uint256)\n  {\n    Token memory _token = Token({\n      campaignName: _campaignName,\n      value: _value,\n      purchaser: _purchaser,\n      message: _message\n    });\n\n    uint256 newTokenId = tokens.push(_token);\n\n    _mint(msg.sender, newTokenId);\n    totalTokens++;\n    return newTokenId;\n  }\n}",
  "sourcePath": "/home/hayek/proj/Notary/contracts/Notarizer.sol",
  "compiler": {
    "name": "solc",
    "version": "0.4.21+commit.dfe3193c.Emscripten.clang"
  },
  "schemaVersion": "2.0.0",
  "updatedAt": "2018-06-22T08:06:28.488Z"
}